{
  "contractName": "TestContract5",
  "abi": [
    {
      "constant": true,
      "inputs": [],
      "name": "value",
      "outputs": [
        {
          "name": "",
          "type": "uint256"
        }
      ],
      "payable": false,
      "stateMutability": "view",
      "type": "function"
    },
    {
      "constant": true,
      "inputs": [],
      "name": "value2",
      "outputs": [
        {
          "name": "",
          "type": "uint256"
        }
      ],
      "payable": false,
      "stateMutability": "view",
      "type": "function"
    },
    {
      "inputs": [
        {
          "name": "contractCastname",
          "type": "string"
        },
        {
          "name": "contractCastAddress",
          "type": "address"
        }
      ],
      "payable": false,
      "stateMutability": "nonpayable",
      "type": "constructor"
    },
    {
      "anonymous": false,
      "inputs": [
        {
          "indexed": true,
          "name": "from",
          "type": "address"
        }
      ],
      "name": "ContractCreated",
      "type": "event"
    },
    {
      "anonymous": false,
      "inputs": [
        {
          "indexed": true,
          "name": "from",
          "type": "address"
        },
        {
          "indexed": false,
          "name": "value",
          "type": "uint256"
        }
      ],
      "name": "EventEmitted",
      "type": "event"
    },
    {
      "anonymous": false,
      "inputs": [
        {
          "indexed": false,
          "name": "name",
          "type": "string"
        },
        {
          "indexed": false,
          "name": "at",
          "type": "address"
        },
        {
          "indexed": false,
          "name": "version",
          "type": "int8"
        }
      ],
      "name": "CastEvent",
      "type": "event"
    },
    {
      "constant": false,
      "inputs": [
        {
          "name": "newValue",
          "type": "uint256"
        }
      ],
      "name": "setStorage",
      "outputs": [],
      "payable": false,
      "stateMutability": "nonpayable",
      "type": "function"
    },
    {
      "constant": false,
      "inputs": [
        {
          "name": "newValue",
          "type": "uint256"
        }
      ],
      "name": "setStorage2",
      "outputs": [],
      "payable": false,
      "stateMutability": "nonpayable",
      "type": "function"
    },
    {
      "constant": false,
      "inputs": [
        {
          "name": "numberOfEvents",
          "type": "uint256"
        }
      ],
      "name": "emitEvents",
      "outputs": [],
      "payable": false,
      "stateMutability": "nonpayable",
      "type": "function"
    },
    {
      "constant": false,
      "inputs": [
        {
          "name": "contractName",
          "type": "string"
        },
        {
          "name": "castAddress",
          "type": "address"
        },
        {
          "name": "numberOfEvents",
          "type": "uint256"
        }
      ],
      "name": "emitContractCastEvents",
      "outputs": [],
      "payable": false,
      "stateMutability": "nonpayable",
      "type": "function"
    }
  ],
  "bytecode": "0x608060405234801561001057600080fd5b5060405161051338038061051383398101806040528101908080518201929190602001805190602001909291905050507febb30d5fa17a7289dcd9a65dd5119db0a780b4aed5ca2dabcf9aefac9e0ee67e8282600060405180806020018473ffffffffffffffffffffffffffffffffffffffff1673ffffffffffffffffffffffffffffffffffffffff1681526020018360000b8152602001828103825285818151815260200191508051906020019080838360005b838110156100e05780820151818401526020810190506100c5565b50505050905090810190601f16801561010d5780820380516001836020036101000a031916815260200191505b5094505050505060405180910390a13373ffffffffffffffffffffffffffffffffffffffff167fcf78cf0d6f3d8371e1075c69c492ab4ec5d8cf23a1a239b6a51a1d00be7ca31260405160405180910390a250506103a3806101706000396000f300608060405260043610610078576000357c0100000000000000000000000000000000000000000000000000000000900463ffffffff1680631ac2d0f01461007d5780633fa4f245146101105780635d33a27f1461013b578063d699c75014610166578063d7d58f5b14610193578063fedf698d146101c0575b600080fd5b34801561008957600080fd5b5061010e600480360381019080803590602001908201803590602001908080601f0160208091040260200160405190810160405280939291908181526020018383808284378201915050505050509192919290803573ffffffffffffffffffffffffffffffffffffffff169060200190929190803590602001909291905050506101ed565b005b34801561011c57600080fd5b506101256102ea565b6040518082815260200191505060405180910390f35b34801561014757600080fd5b506101506102f0565b6040518082815260200191505060405180910390f35b34801561017257600080fd5b50610191600480360381019080803590602001909291905050506102f6565b005b34801561019f57600080fd5b506101be60048036038101908080359060200190929190505050610300565b005b3480156101cc57600080fd5b506101eb6004803603810190808035906020019092919050505061036d565b005b60008090505b818110156102e4577febb30d5fa17a7289dcd9a65dd5119db0a780b4aed5ca2dabcf9aefac9e0ee67e8484600060405180806020018473ffffffffffffffffffffffffffffffffffffffff1673ffffffffffffffffffffffffffffffffffffffff1681526020018360000b8152602001828103825285818151815260200191508051906020019080838360005b8381101561029b578082015181840152602081019050610280565b50505050905090810190601f1680156102c85780820380516001836020036101000a031916815260200191505b5094505050505060405180910390a180806001019150506101f3565b50505050565b60005481565b60015481565b8060008190555050565b60008090505b81811015610369573373ffffffffffffffffffffffffffffffffffffffff167fbb02cddae59d501d1fcf63888ace3fad45eb43ca3387d34e3bb6a29be957e3f1826040518082815260200191505060405180910390a28080600101915050610306565b5050565b80600181905550505600a165627a7a723058205412236b687d14878d9f9e834c051614a84ce84b5bcf1fced76356fbc8689a8f0029",
  "source": "pragma solidity ^0.4.24;\n\n// Test smart contract, only for reference\ncontract TestContract5 {\n\n  uint256 public value;\n  uint256 public value2;\n\n  event ContractCreated(address indexed from);\n  event EventEmitted(address indexed from, uint256 value);\n  event CastEvent(string name, address at, int8 version);\n\n  constructor(string contractCastname, address contractCastAddress) public {\n    emit CastEvent(contractCastname, contractCastAddress, 0);\n    emit ContractCreated(msg.sender);\n  }\n\n  function setStorage(uint256 newValue) public {\n    value = newValue;\n  }\n\n  function setStorage2(uint256 newValue) public {\n    value2 = newValue;\n  }\n\n  function emitEvents(uint256 numberOfEvents) public {\n    uint256 i;\n    for (i = 0; i < numberOfEvents; i++) {\n      emit EventEmitted(msg.sender, i);\n    }\n  }\n\n  function emitContractCastEvents(\n    string contractName,\n    address castAddress,\n    uint256 numberOfEvents\n    ) public {\n    uint256 i;\n    for (i = 0; i < numberOfEvents; i++) {\n      emit CastEvent(contractName, castAddress, 0);\n    }\n  }\n}\n",
  "sourcePath": "/home/dario/Documents/Asset Factory/AssetFactory/contracts/TestContract.sol",
  "compiler": {
    "name": "solc",
    "version": "0.4.24+commit.e67f0147.Emscripten.clang"
  },
  "schemaVersion": "2.0.1",
  "updatedAt": "2019-04-11T14:38:48.092Z"
}