{
  "contractName": "TestContract4",
  "abi": [
    {
      "constant": true,
      "inputs": [],
      "name": "value",
      "outputs": [
        {
          "name": "",
          "type": "uint256"
        }
      ],
      "payable": false,
      "stateMutability": "view",
      "type": "function"
    },
    {
      "constant": true,
      "inputs": [],
      "name": "value2",
      "outputs": [
        {
          "name": "",
          "type": "uint256"
        }
      ],
      "payable": false,
      "stateMutability": "view",
      "type": "function"
    },
    {
      "inputs": [],
      "payable": false,
      "stateMutability": "nonpayable",
      "type": "constructor"
    },
    {
      "anonymous": false,
      "inputs": [
        {
          "indexed": true,
          "name": "from",
          "type": "address"
        }
      ],
      "name": "ContractCreated",
      "type": "event"
    },
    {
      "anonymous": false,
      "inputs": [
        {
          "indexed": true,
          "name": "from",
          "type": "address"
        },
        {
          "indexed": false,
          "name": "value",
          "type": "uint256"
        }
      ],
      "name": "EventEmitted",
      "type": "event"
    },
    {
      "constant": false,
      "inputs": [
        {
          "name": "newValue",
          "type": "uint256"
        }
      ],
      "name": "setStorage",
      "outputs": [],
      "payable": false,
      "stateMutability": "nonpayable",
      "type": "function"
    },
    {
      "constant": false,
      "inputs": [
        {
          "name": "newValue",
          "type": "uint256"
        }
      ],
      "name": "setStorage2",
      "outputs": [],
      "payable": false,
      "stateMutability": "nonpayable",
      "type": "function"
    },
    {
      "constant": false,
      "inputs": [
        {
          "name": "numberOfEvents",
          "type": "uint256"
        }
      ],
      "name": "emitEvents",
      "outputs": [],
      "payable": false,
      "stateMutability": "nonpayable",
      "type": "function"
    }
  ],
  "bytecode": "0x608060405234801561001057600080fd5b503373ffffffffffffffffffffffffffffffffffffffff167fcf78cf0d6f3d8371e1075c69c492ab4ec5d8cf23a1a239b6a51a1d00be7ca31260405160405180910390a2610208806100636000396000f30060806040526004361061006d576000357c0100000000000000000000000000000000000000000000000000000000900463ffffffff1680633fa4f245146100725780635d33a27f1461009d578063d699c750146100c8578063d7d58f5b146100f5578063fedf698d14610122575b600080fd5b34801561007e57600080fd5b5061008761014f565b6040518082815260200191505060405180910390f35b3480156100a957600080fd5b506100b2610155565b6040518082815260200191505060405180910390f35b3480156100d457600080fd5b506100f36004803603810190808035906020019092919050505061015b565b005b34801561010157600080fd5b5061012060048036038101908080359060200190929190505050610165565b005b34801561012e57600080fd5b5061014d600480360381019080803590602001909291905050506101d2565b005b60005481565b60015481565b8060008190555050565b60008090505b818110156101ce573373ffffffffffffffffffffffffffffffffffffffff167fbb02cddae59d501d1fcf63888ace3fad45eb43ca3387d34e3bb6a29be957e3f1826040518082815260200191505060405180910390a2808060010191505061016b565b5050565b80600181905550505600a165627a7a72305820282c734993a489e9862d118c478275c66591ea9f31908a0726092cb5385f5c600029",
  "source": "pragma solidity ^0.4.24;\n\n// Test smart contract, only for reference\ncontract TestContract4 {\n\n  uint256 public value;\n  uint256 public value2;\n\n  event ContractCreated(address indexed from);\n  event EventEmitted(address indexed from, uint256 value);\n\n  constructor() public {\n    emit ContractCreated(msg.sender);\n  }\n\n  function setStorage(uint256 newValue) public {\n    value = newValue;\n  }\n\n  function setStorage2(uint256 newValue) public {\n    value2 = newValue;\n  }\n\n  function emitEvents(uint256 numberOfEvents) public {\n    uint256 i;\n    for(i = 0; i < numberOfEvents; i++) {\n      emit EventEmitted(msg.sender, i);\n    }\n  }\n}\n",
  "sourcePath": "/Users/folusoogunlana/Documents/ConsenSys/code/komgo-member/komgo-member-blockchain-event-management/test/integration-tests/contracts/TestContract4.sol",
  "compiler": {
    "name": "solc",
    "version": "0.4.24+commit.e67f0147.Emscripten.clang"
  },
  "schemaVersion": "3.0.2",
  "updatedAt": "2019-03-27T09:38:22.081Z",
  "devdoc": {
    "methods": {}
  },
  "userdoc": {
    "methods": {}
  }
}