{
  "contractName": "TestContract",
  "abi": [
    {
      "constant": true,
      "inputs": [],
      "name": "value",
      "outputs": [
        {
          "name": "",
          "type": "uint256"
        }
      ],
      "payable": false,
      "stateMutability": "view",
      "type": "function"
    },
    {
      "inputs": [],
      "payable": false,
      "stateMutability": "nonpayable",
      "type": "constructor"
    },
    {
      "anonymous": false,
      "inputs": [
        {
          "indexed": true,
          "name": "from",
          "type": "address"
        }
      ],
      "name": "ContractCreated",
      "type": "event"
    },
    {
      "anonymous": false,
      "inputs": [
        {
          "indexed": true,
          "name": "from",
          "type": "address"
        },
        {
          "indexed": false,
          "name": "value",
          "type": "uint256"
        }
      ],
      "name": "EventEmitted",
      "type": "event"
    },
    {
      "constant": false,
      "inputs": [
        {
          "name": "newValue",
          "type": "uint256"
        }
      ],
      "name": "setStorage",
      "outputs": [],
      "payable": false,
      "stateMutability": "nonpayable",
      "type": "function"
    },
    {
      "constant": false,
      "inputs": [
        {
          "name": "numberOfEvents",
          "type": "uint256"
        }
      ],
      "name": "emitEvents",
      "outputs": [],
      "payable": false,
      "stateMutability": "nonpayable",
      "type": "function"
    }
  ],
  "bytecode": "0x608060405234801561001057600080fd5b503373ffffffffffffffffffffffffffffffffffffffff167fcf78cf0d6f3d8371e1075c69c492ab4ec5d8cf23a1a239b6a51a1d00be7ca31260405160405180910390a261018a806100636000396000f300608060405260043610610057576000357c0100000000000000000000000000000000000000000000000000000000900463ffffffff1680633fa4f2451461005c578063d699c75014610087578063d7d58f5b146100b4575b600080fd5b34801561006857600080fd5b506100716100e1565b6040518082815260200191505060405180910390f35b34801561009357600080fd5b506100b2600480360381019080803590602001909291905050506100e7565b005b3480156100c057600080fd5b506100df600480360381019080803590602001909291905050506100f1565b005b60005481565b8060008190555050565b60008090505b8181101561015a573373ffffffffffffffffffffffffffffffffffffffff167fbb02cddae59d501d1fcf63888ace3fad45eb43ca3387d34e3bb6a29be957e3f1826040518082815260200191505060405180910390a280806001019150506100f7565b50505600a165627a7a72305820331cb33f217e4a1e8225f8083db45acad28de5a9198d0efa513ed0298cef3df90029",
  "source": "pragma solidity ^0.4.24;\n\n// Test smart contract, only for reference\ncontract TestContract {\n\n  uint256 public value;\n\n  event ContractCreated(address indexed from);\n  event EventEmitted(address indexed from, uint256 value);\n\n  constructor() public {\n    emit ContractCreated(msg.sender);\n  }\n\n  function setStorage(uint256 newValue) public {\n    value = newValue;\n  }\n\n  function emitEvents(uint256 numberOfEvents) public {\n    uint256 i;\n    for(i = 0; i < numberOfEvents; i++) {\n      emit EventEmitted(msg.sender, i);\n    }\n  }\n}\n",
  "sourcePath": "/Users/folusoogunlana/Documents/ConsenSys/code/komgo-member/komgo-member-blockchain-event-management/test/integration-tests/contracts/TestContract.sol",
  "compiler": {
    "name": "solc",
    "version": "0.4.24+commit.e67f0147.Emscripten.clang"
  },
  "schemaVersion": "3.0.2",
  "updatedAt": "2019-02-27T16:00:29.552Z",
  "devdoc": {
    "methods": {}
  },
  "userdoc": {
    "methods": {}
  }
}