{
  "contractName": "TestContract3",
  "abi": [
    {
      "constant": true,
      "inputs": [],
      "name": "param1",
      "outputs": [
        {
          "name": "",
          "type": "string"
        }
      ],
      "payable": false,
      "stateMutability": "view",
      "type": "function"
    },
    {
      "constant": true,
      "inputs": [],
      "name": "param2",
      "outputs": [
        {
          "name": "",
          "type": "string"
        }
      ],
      "payable": false,
      "stateMutability": "view",
      "type": "function"
    },
    {
      "constant": true,
      "inputs": [],
      "name": "value",
      "outputs": [
        {
          "name": "",
          "type": "uint256"
        }
      ],
      "payable": false,
      "stateMutability": "view",
      "type": "function"
    },
    {
      "inputs": [
        {
          "name": "inputParam1",
          "type": "string"
        },
        {
          "name": "inputParam2",
          "type": "string"
        }
      ],
      "payable": false,
      "stateMutability": "nonpayable",
      "type": "constructor"
    },
    {
      "anonymous": false,
      "inputs": [
        {
          "indexed": true,
          "name": "from",
          "type": "address"
        }
      ],
      "name": "ContractCreated",
      "type": "event"
    },
    {
      "anonymous": false,
      "inputs": [
        {
          "indexed": true,
          "name": "from",
          "type": "address"
        },
        {
          "indexed": false,
          "name": "value",
          "type": "uint256"
        }
      ],
      "name": "EventEmitted",
      "type": "event"
    },
    {
      "constant": false,
      "inputs": [
        {
          "name": "newValue",
          "type": "uint256"
        }
      ],
      "name": "setStorage",
      "outputs": [],
      "payable": false,
      "stateMutability": "nonpayable",
      "type": "function"
    },
    {
      "constant": false,
      "inputs": [
        {
          "name": "numberOfEvents",
          "type": "uint256"
        }
      ],
      "name": "emitEvents",
      "outputs": [],
      "payable": false,
      "stateMutability": "nonpayable",
      "type": "function"
    }
  ],
  "bytecode": "0x608060405234801561001057600080fd5b50604051610565380380610565833981018060405281019080805182019291906020018051820192919050505081600190805190602001906100539291906100b5565b50806002908051906020019061006a9291906100b5565b503373ffffffffffffffffffffffffffffffffffffffff167fcf78cf0d6f3d8371e1075c69c492ab4ec5d8cf23a1a239b6a51a1d00be7ca31260405160405180910390a2505061015a565b828054600181600116156101000203166002900490600052602060002090601f016020900481019282601f106100f657805160ff1916838001178555610124565b82800160010185558215610124579182015b82811115610123578251825591602001919060010190610108565b5b5090506101319190610135565b5090565b61015791905b8082111561015357600081600090555060010161013b565b5090565b90565b6103fc806101696000396000f30060806040526004361061006d576000357c0100000000000000000000000000000000000000000000000000000000900463ffffffff16806302d91518146100725780631f049b68146101025780633fa4f24514610192578063d699c750146101bd578063d7d58f5b146101ea575b600080fd5b34801561007e57600080fd5b50610087610217565b6040518080602001828103825283818151815260200191508051906020019080838360005b838110156100c75780820151818401526020810190506100ac565b50505050905090810190601f1680156100f45780820380516001836020036101000a031916815260200191505b509250505060405180910390f35b34801561010e57600080fd5b506101176102b5565b6040518080602001828103825283818151815260200191508051906020019080838360005b8381101561015757808201518184015260208101905061013c565b50505050905090810190601f1680156101845780820380516001836020036101000a031916815260200191505b509250505060405180910390f35b34801561019e57600080fd5b506101a7610353565b6040518082815260200191505060405180910390f35b3480156101c957600080fd5b506101e860048036038101908080359060200190929190505050610359565b005b3480156101f657600080fd5b5061021560048036038101908080359060200190929190505050610363565b005b60018054600181600116156101000203166002900480601f0160208091040260200160405190810160405280929190818152602001828054600181600116156101000203166002900480156102ad5780601f10610282576101008083540402835291602001916102ad565b820191906000526020600020905b81548152906001019060200180831161029057829003601f168201915b505050505081565b60028054600181600116156101000203166002900480601f01602080910402602001604051908101604052809291908181526020018280546001816001161561010002031660029004801561034b5780601f106103205761010080835404028352916020019161034b565b820191906000526020600020905b81548152906001019060200180831161032e57829003601f168201915b505050505081565b60005481565b8060008190555050565b60008090505b818110156103cc573373ffffffffffffffffffffffffffffffffffffffff167fbb02cddae59d501d1fcf63888ace3fad45eb43ca3387d34e3bb6a29be957e3f1826040518082815260200191505060405180910390a28080600101915050610369565b50505600a165627a7a7230582061a6f1c38a39a41d45677f9f775e01485ebd5eecbb01f902fc95ae1f058930500029",
  "source": "pragma solidity ^0.4.24;\n\n// Test smart contract, only for reference\ncontract TestContract3 {\n\n  uint256 public value;\n  string public param1;\n  string public param2;\n\n  event ContractCreated(address indexed from);\n  event EventEmitted(address indexed from, uint256 value);\n\n  constructor(string inputParam1, string inputParam2) public {\n    param1 = inputParam1;\n    param2 = inputParam2;\n    emit ContractCreated(msg.sender);\n  }\n\n  function setStorage(uint256 newValue) public {\n    value = newValue;\n  }\n\n  function emitEvents(uint256 numberOfEvents) public {\n    uint256 i;\n    for(i = 0; i < numberOfEvents; i++) {\n      emit EventEmitted(msg.sender, i);\n    }\n  }\n}\n",
  "sourcePath": "/Users/folusoogunlana/Documents/ConsenSys/code/komgo-member/komgo-member-blockchain-event-management/test/integration-tests/contracts/TestContract3.sol",
  "compiler": {
    "name": "solc",
    "version": "0.4.24+commit.e67f0147.Emscripten.clang"
  },
  "schemaVersion": "3.0.2",
  "updatedAt": "2019-02-27T16:00:29.550Z",
  "devdoc": {
    "methods": {}
  },
  "userdoc": {
    "methods": {}
  }
}