{
  "contractName": "KomgoOnboarder",
  "abi": [
    {
      "constant": true,
      "inputs": [],
      "name": "komgoRegistrar",
      "outputs": [
        {
          "name": "",
          "type": "address"
        }
      ],
      "payable": false,
      "stateMutability": "view",
      "type": "function"
    },
    {
      "constant": true,
      "inputs": [],
      "name": "komgoMetaResolver",
      "outputs": [
        {
          "name": "",
          "type": "address"
        }
      ],
      "payable": false,
      "stateMutability": "view",
      "type": "function"
    },
    {
      "constant": true,
      "inputs": [],
      "name": "owner",
      "outputs": [
        {
          "name": "",
          "type": "address"
        }
      ],
      "payable": false,
      "stateMutability": "view",
      "type": "function"
    },
    {
      "constant": false,
      "inputs": [
        {
          "name": "_newOwner",
          "type": "address"
        }
      ],
      "name": "transferOwnership",
      "outputs": [],
      "payable": false,
      "stateMutability": "nonpayable",
      "type": "function"
    },
    {
      "inputs": [
        {
          "name": "_ensAddress",
          "type": "address"
        }
      ],
      "payable": false,
      "stateMutability": "nonpayable",
      "type": "constructor"
    },
    {
      "anonymous": false,
      "inputs": [
        {
          "indexed": true,
          "name": "previousOwner",
          "type": "address"
        },
        {
          "indexed": true,
          "name": "newOwner",
          "type": "address"
        }
      ],
      "name": "OwnershipTransferred",
      "type": "event"
    },
    {
      "constant": false,
      "inputs": [
        {
          "components": [
            {
              "name": "staticIdHashed",
              "type": "bytes32"
            },
            {
              "components": [
                {
                  "components": [
                    {
                      "name": "x",
                      "type": "bytes32"
                    },
                    {
                      "name": "y",
                      "type": "bytes32"
                    }
                  ],
                  "name": "publicKey",
                  "type": "tuple"
                },
                {
                  "name": "termDate",
                  "type": "uint256"
                },
                {
                  "name": "isEmpty",
                  "type": "bool"
                }
              ],
              "name": "ethPubKey",
              "type": "tuple"
            },
            {
              "components": [
                {
                  "name": "key",
                  "type": "string"
                },
                {
                  "name": "value",
                  "type": "string"
                }
              ],
              "name": "textEntries",
              "type": "tuple[]"
            },
            {
              "components": [
                {
                  "name": "key",
                  "type": "string"
                },
                {
                  "name": "termDate",
                  "type": "uint256"
                },
                {
                  "name": "isEmpty",
                  "type": "bool"
                }
              ],
              "name": "komgoMessagingPubKey",
              "type": "tuple"
            },
            {
              "components": [
                {
                  "name": "key",
                  "type": "string"
                },
                {
                  "name": "termDate",
                  "type": "uint256"
                },
                {
                  "name": "isEmpty",
                  "type": "bool"
                }
              ],
              "name": "vaktMessagingPubKey",
              "type": "tuple"
            }
          ],
          "name": "_onboardInfo",
          "type": "tuple"
        }
      ],
      "name": "addCompanyOnboardingInformation",
      "outputs": [
        {
          "name": "",
          "type": "bool"
        }
      ],
      "payable": false,
      "stateMutability": "nonpayable",
      "type": "function"
    },
    {
      "constant": false,
      "inputs": [
        {
          "components": [
            {
              "name": "staticIdHashed",
              "type": "bytes32"
            },
            {
              "components": [
                {
                  "components": [
                    {
                      "name": "x",
                      "type": "bytes32"
                    },
                    {
                      "name": "y",
                      "type": "bytes32"
                    }
                  ],
                  "name": "publicKey",
                  "type": "tuple"
                },
                {
                  "name": "termDate",
                  "type": "uint256"
                },
                {
                  "name": "isEmpty",
                  "type": "bool"
                }
              ],
              "name": "ethPubKey",
              "type": "tuple"
            },
            {
              "components": [
                {
                  "name": "key",
                  "type": "string"
                },
                {
                  "name": "value",
                  "type": "string"
                }
              ],
              "name": "textEntries",
              "type": "tuple[]"
            },
            {
              "components": [
                {
                  "name": "key",
                  "type": "string"
                },
                {
                  "name": "termDate",
                  "type": "uint256"
                },
                {
                  "name": "isEmpty",
                  "type": "bool"
                }
              ],
              "name": "komgoMessagingPubKey",
              "type": "tuple"
            },
            {
              "components": [
                {
                  "name": "key",
                  "type": "string"
                },
                {
                  "name": "termDate",
                  "type": "uint256"
                },
                {
                  "name": "isEmpty",
                  "type": "bool"
                }
              ],
              "name": "vaktMessagingPubKey",
              "type": "tuple"
            }
          ],
          "name": "_onboardInformation",
          "type": "tuple[]"
        }
      ],
      "name": "addCompaniesOnboardingInformation",
      "outputs": [
        {
          "name": "",
          "type": "bool"
        }
      ],
      "payable": false,
      "stateMutability": "nonpayable",
      "type": "function"
    },
    {
      "constant": false,
      "inputs": [
        {
          "name": "_node",
          "type": "bytes32"
        },
        {
          "components": [
            {
              "components": [
                {
                  "name": "x",
                  "type": "bytes32"
                },
                {
                  "name": "y",
                  "type": "bytes32"
                }
              ],
              "name": "publicKey",
              "type": "tuple"
            },
            {
              "name": "termDate",
              "type": "uint256"
            },
            {
              "name": "isEmpty",
              "type": "bool"
            }
          ],
          "name": "_ethPubKey",
          "type": "tuple"
        }
      ],
      "name": "addEthereumPublicKey",
      "outputs": [
        {
          "name": "",
          "type": "bool"
        }
      ],
      "payable": false,
      "stateMutability": "nonpayable",
      "type": "function"
    },
    {
      "constant": false,
      "inputs": [
        {
          "name": "_node",
          "type": "bytes32"
        },
        {
          "components": [
            {
              "name": "key",
              "type": "string"
            },
            {
              "name": "value",
              "type": "string"
            }
          ],
          "name": "_textEntries",
          "type": "tuple[]"
        }
      ],
      "name": "addTextEntries",
      "outputs": [],
      "payable": false,
      "stateMutability": "nonpayable",
      "type": "function"
    },
    {
      "constant": false,
      "inputs": [
        {
          "components": [
            {
              "name": "node",
              "type": "bytes32"
            },
            {
              "components": [
                {
                  "name": "key",
                  "type": "string"
                },
                {
                  "name": "value",
                  "type": "string"
                }
              ],
              "name": "textEntries",
              "type": "tuple[]"
            }
          ],
          "name": "_updates",
          "type": "tuple[]"
        }
      ],
      "name": "setTextEntriesBatch",
      "outputs": [],
      "payable": false,
      "stateMutability": "nonpayable",
      "type": "function"
    },
    {
      "constant": false,
      "inputs": [
        {
          "name": "_staticIdHashed",
          "type": "bytes32"
        },
        {
          "name": "_node",
          "type": "bytes32"
        },
        {
          "name": "_ownerAddress",
          "type": "address"
        }
      ],
      "name": "registerCompanyNode",
      "outputs": [],
      "payable": false,
      "stateMutability": "nonpayable",
      "type": "function"
    },
    {
      "constant": false,
      "inputs": [
        {
          "name": "_node",
          "type": "bytes32"
        },
        {
          "components": [
            {
              "name": "key",
              "type": "string"
            },
            {
              "name": "termDate",
              "type": "uint256"
            },
            {
              "name": "isEmpty",
              "type": "bool"
            }
          ],
          "name": "_messagingPubKey",
          "type": "tuple"
        }
      ],
      "name": "addVaktMessagingPublicKey",
      "outputs": [
        {
          "name": "",
          "type": "bool"
        }
      ],
      "payable": false,
      "stateMutability": "nonpayable",
      "type": "function"
    },
    {
      "constant": false,
      "inputs": [
        {
          "name": "_node",
          "type": "bytes32"
        },
        {
          "components": [
            {
              "name": "key",
              "type": "string"
            },
            {
              "name": "termDate",
              "type": "uint256"
            },
            {
              "name": "isEmpty",
              "type": "bool"
            }
          ],
          "name": "_messagingPubKey",
          "type": "tuple"
        },
        {
          "components": [
            {
              "name": "key",
              "type": "string"
            },
            {
              "name": "value",
              "type": "string"
            }
          ],
          "name": "_textEntries",
          "type": "tuple[]"
        }
      ],
      "name": "setVaktMessgingPublicKey",
      "outputs": [],
      "payable": false,
      "stateMutability": "nonpayable",
      "type": "function"
    },
    {
      "constant": false,
      "inputs": [
        {
          "name": "_node",
          "type": "bytes32"
        }
      ],
      "name": "revokeVaktMessagingPublicKey",
      "outputs": [],
      "payable": false,
      "stateMutability": "nonpayable",
      "type": "function"
    },
    {
      "constant": false,
      "inputs": [
        {
          "name": "_node",
          "type": "bytes32"
        },
        {
          "components": [
            {
              "name": "key",
              "type": "string"
            },
            {
              "name": "termDate",
              "type": "uint256"
            },
            {
              "name": "isEmpty",
              "type": "bool"
            }
          ],
          "name": "_messagingPubKey",
          "type": "tuple"
        }
      ],
      "name": "addKomgoMessagingPublicKey",
      "outputs": [
        {
          "name": "",
          "type": "bool"
        }
      ],
      "payable": false,
      "stateMutability": "nonpayable",
      "type": "function"
    },
    {
      "constant": false,
      "inputs": [
        {
          "name": "_nodes",
          "type": "bytes32[]"
        },
        {
          "name": "_newOwner",
          "type": "address"
        }
      ],
      "name": "transferCompanyNodes",
      "outputs": [],
      "payable": false,
      "stateMutability": "nonpayable",
      "type": "function"
    },
    {
      "constant": false,
      "inputs": [
        {
          "name": "_newOwner",
          "type": "address"
        }
      ],
      "name": "transferRegistrarOwnership",
      "outputs": [],
      "payable": false,
      "stateMutability": "nonpayable",
      "type": "function"
    }
  ],
  "bytecode": "0x60806040527f255fa55edcca0b83c72d43f3a4b090aec6b7de747c9df042d56b2c3b6d97a8736001026001906000191690557f9c19ca3566862e19c7779f1af09f5b2883d8880917cedcbf4ae505a775fa518a6001026002906000191690557f56153f5af74cd5af058095635c60e6cff57544a8dd167ebebd5331bf3ccfceec6001026003906000191690553480156200009857600080fd5b50604051602080620030448339810180604052620000ba91908101906200057b565b600080600080336000806101000a81548173ffffffffffffffffffffffffffffffffffffffff021916908373ffffffffffffffffffffffffffffffffffffffff16021790555084600460006101000a81548173ffffffffffffffffffffffffffffffffffffffff021916908373ffffffffffffffffffffffffffffffffffffffff160217905550600460009054906101000a900473ffffffffffffffffffffffffffffffffffffffff1673ffffffffffffffffffffffffffffffffffffffff16630178b8bf6001546040518263ffffffff167c0100000000000000000000000000000000000000000000000000000000028152600401620001bc91906200065d565b602060405180830381600087803b158015620001d757600080fd5b505af1158015620001ec573d6000803e3d6000fd5b505050506040513d601f19601f820116820180604052506200021291908101906200057b565b9350600073ffffffffffffffffffffffffffffffffffffffff168473ffffffffffffffffffffffffffffffffffffffff161415151562000289576040517f08c379a00000000000000000000000000000000000000000000000000000000081526004016200028090620006be565b60405180910390fd5b8392508273ffffffffffffffffffffffffffffffffffffffff16633b3b57de6001546040518263ffffffff167c0100000000000000000000000000000000000000000000000000000000028152600401620002e591906200065d565b602060405180830381600087803b1580156200030057600080fd5b505af115801562000315573d6000803e3d6000fd5b505050506040513d601f19601f820116820180604052506200033b91908101906200057b565b9150600073ffffffffffffffffffffffffffffffffffffffff168273ffffffffffffffffffffffffffffffffffffffff1614151515620003b2576040517f08c379a0000000000000000000000000000000000000000000000000000000008152600401620003a9906200067a565b60405180910390fd5b81600560006101000a81548173ffffffffffffffffffffffffffffffffffffffff021916908373ffffffffffffffffffffffffffffffffffffffff1602179055508273ffffffffffffffffffffffffffffffffffffffff16633b3b57de6003546040518263ffffffff167c01000000000000000000000000000000000000000000000000000000000281526004016200044c91906200065d565b602060405180830381600087803b1580156200046757600080fd5b505af11580156200047c573d6000803e3d6000fd5b505050506040513d601f19601f82011682018060405250620004a291908101906200057b565b9050600073ffffffffffffffffffffffffffffffffffffffff168173ffffffffffffffffffffffffffffffffffffffff161415151562000519576040517f08c379a000000000000000000000000000000000000000000000000000000000815260040162000510906200069c565b60405180910390fd5b80600660006101000a81548173ffffffffffffffffffffffffffffffffffffffff021916908373ffffffffffffffffffffffffffffffffffffffff16021790555050505050506200070a565b6000620005738251620006ea565b905092915050565b6000602082840312156200058e57600080fd5b60006200059e8482850162000565565b91505092915050565b620005b281620006e0565b82525050565b6000601d82527f496e76616c6964206d657461207265736f6c76657220616464726573730000006020830152604082019050919050565b6000601982527f496e76616c6964207265676973747261722061646472657373000000000000006020830152604082019050919050565b6000601882527f496e76616c6964207265736f6c766572206164647265737300000000000000006020830152604082019050919050565b6000602082019050620006746000830184620005a7565b92915050565b600060208201905081810360008301526200069581620005b8565b9050919050565b60006020820190508181036000830152620006b781620005ef565b9050919050565b60006020820190508181036000830152620006d98162000626565b9050919050565b6000819050919050565b600073ffffffffffffffffffffffffffffffffffffffff82169050919050565b61292a806200071a6000396000f3006080604052600436106100e6576000357c0100000000000000000000000000000000000000000000000000000000900463ffffffff168063154fbf15146100eb5780632437c9ee14610114578063442162391461013d5780635b91694c14610166578063721f5c0b146101915780637ba65848146101ba578063847328f7146101e357806384dc71da146102205780638da5cb5b1461024b57806390610289146102765780639963a1a41461029f578063aaabd4c9146102dc578063ab482bdf14610319578063c3c38a3514610356578063f2fde38b1461037f578063f6c89275146103a8575b600080fd5b3480156100f757600080fd5b50610112600480360361010d9190810190612007565b6103e5565b005b34801561012057600080fd5b5061013b60048036036101369190810190612106565b610522565b005b34801561014957600080fd5b50610164600480360361015f9190810190612030565b610863565b005b34801561017257600080fd5b5061017b6109d8565b6040516101889190612652565b60405180910390f35b34801561019d57600080fd5b506101b860048036036101b39190810190612262565b6109fe565b005b3480156101c657600080fd5b506101e160048036036101dc91908101906120c5565b610aa9565b005b3480156101ef57600080fd5b5061020a60048036036102059190810190612084565b610be5565b60405161021791906124e7565b60405180910390f35b34801561022c57600080fd5b50610235610d0b565b6040516102429190612637565b60405180910390f35b34801561025757600080fd5b50610260610d31565b60405161026d91906124cc565b60405180910390f35b34801561028257600080fd5b5061029d60048036036102989190810190612183565b610d56565b005b3480156102ab57600080fd5b506102c660048036036102c1919081019061220e565b610f42565b6040516102d391906124e7565b60405180910390f35b3480156102e857600080fd5b5061030360048036036102fe91908101906122e1565b6110ad565b60405161031091906124e7565b60405180910390f35b34801561032557600080fd5b50610340600480360361033b919081019061220e565b611237565b60405161034d91906124e7565b60405180910390f35b34801561036257600080fd5b5061037d6004803603610378919081019061212f565b6113a2565b005b34801561038b57600080fd5b506103a660048036036103a19190810190612007565b61153d565b005b3480156103b457600080fd5b506103cf60048036036103ca91908101906121d2565b6115da565b6040516103dc91906124e7565b60405180910390f35b6000809054906101000a900473ffffffffffffffffffffffffffffffffffffffff1673ffffffffffffffffffffffffffffffffffffffff163373ffffffffffffffffffffffffffffffffffffffff16141515610476576040517f08c379a000000000000000000000000000000000000000000000000000000000815260040161046d9061266d565b60405180910390fd5b600660009054906101000a900473ffffffffffffffffffffffffffffffffffffffff1673ffffffffffffffffffffffffffffffffffffffff1663f2fde38b826040518263ffffffff167c01000000000000000000000000000000000000000000000000000000000281526004016104ed91906124cc565b600060405180830381600087803b15801561050757600080fd5b505af115801561051b573d6000803e3d6000fd5b5050505050565b60606000809054906101000a900473ffffffffffffffffffffffffffffffffffffffff1673ffffffffffffffffffffffffffffffffffffffff163373ffffffffffffffffffffffffffffffffffffffff161415156105b5576040517f08c379a00000000000000000000000000000000000000000000000000000000081526004016105ac9061266d565b60405180910390fd5b600560009054906101000a900473ffffffffffffffffffffffffffffffffffffffff1673ffffffffffffffffffffffffffffffffffffffff1663a110eff7836001600560009054906101000a900473ffffffffffffffffffffffffffffffffffffffff1673ffffffffffffffffffffffffffffffffffffffff1663176d2f3b876040518263ffffffff167c010000000000000000000000000000000000000000000000000000000002815260040161066d9190612502565b602060405180830381600087803b15801561068757600080fd5b505af115801561069b573d6000803e3d6000fd5b505050506040513d601f19601f820116820180604052506106bf9190810190612322565b036040518363ffffffff167c01000000000000000000000000000000000000000000000000000000000281526004016106f992919061260e565b600060405180830381600087803b15801561071357600080fd5b505af1158015610727573d6000803e3d6000fd5b50505050600260405190808252806020026020018201604052801561076657816020015b610753611858565b81526020019060019003908161074b5790505b50905060408051908101604052806040805190810160405280600c81526020017f76616b7453746174696349640000000000000000000000000000000000000000815250815260200160206040519081016040528060008152508152508160008151811015156107d257fe5b9060200190602002018190525060408051908101604052806040805190810160405280600881526020017f76616b744d6e69640000000000000000000000000000000000000000000000008152508152602001602060405190810160405280600081525081525081600181518110151561084857fe5b9060200190602002018190525061085f82826113a2565b5050565b60008060009054906101000a900473ffffffffffffffffffffffffffffffffffffffff1673ffffffffffffffffffffffffffffffffffffffff163373ffffffffffffffffffffffffffffffffffffffff161415156108f6576040517f08c379a00000000000000000000000000000000000000000000000000000000081526004016108ed9061266d565b60405180910390fd5b600090505b82518110156109d357600460009054906101000a900473ffffffffffffffffffffffffffffffffffffffff1673ffffffffffffffffffffffffffffffffffffffff16635b0fc9c3848381518110151561095057fe5b90602001906020020151846040518363ffffffff167c010000000000000000000000000000000000000000000000000000000002815260040161099492919061251d565b600060405180830381600087803b1580156109ae57600080fd5b505af11580156109c2573d6000803e3d6000fd5b5050505080806001019150506108fb565b505050565b600660009054906101000a900473ffffffffffffffffffffffffffffffffffffffff1681565b6000809054906101000a900473ffffffffffffffffffffffffffffffffffffffff1673ffffffffffffffffffffffffffffffffffffffff163373ffffffffffffffffffffffffffffffffffffffff16141515610a8f576040517f08c379a0000000000000000000000000000000000000000000000000000000008152600401610a869061266d565b60405180910390fd5b610a998383610f42565b50610aa483826113a2565b505050565b6000806000809054906101000a900473ffffffffffffffffffffffffffffffffffffffff1673ffffffffffffffffffffffffffffffffffffffff163373ffffffffffffffffffffffffffffffffffffffff16141515610b3d576040517f08c379a0000000000000000000000000000000000000000000000000000000008152600401610b349061266d565b60405180910390fd5b82519150600082111515610b86576040517f08c379a0000000000000000000000000000000000000000000000000000000008152600401610b7d9061268d565b60405180910390fd5b600090505b81811015610be057610bd38382815181101515610ba457fe5b90602001906020020151600001518483815181101515610bc057fe5b90602001906020020151602001516113a2565b8080600101915050610b8b565b505050565b60008060008060009054906101000a900473ffffffffffffffffffffffffffffffffffffffff1673ffffffffffffffffffffffffffffffffffffffff163373ffffffffffffffffffffffffffffffffffffffff16141515610c7b576040517f08c379a0000000000000000000000000000000000000000000000000000000008152600401610c729061266d565b60405180910390fd5b60008451111515610cc1576040517f08c379a0000000000000000000000000000000000000000000000000000000008152600401610cb8906126ad565b60405180910390fd5b83519150600090505b81811015610d0057610cf28482815181101515610ce357fe5b906020019060200201516110ad565b508080600101915050610cca565b600192505050919050565b600560009054906101000a900473ffffffffffffffffffffffffffffffffffffffff1681565b6000809054906101000a900473ffffffffffffffffffffffffffffffffffffffff1681565b6000809054906101000a900473ffffffffffffffffffffffffffffffffffffffff1673ffffffffffffffffffffffffffffffffffffffff163373ffffffffffffffffffffffffffffffffffffffff16141515610de7576040517f08c379a0000000000000000000000000000000000000000000000000000000008152600401610dde9061266d565b60405180910390fd5b600660009054906101000a900473ffffffffffffffffffffffffffffffffffffffff1673ffffffffffffffffffffffffffffffffffffffff1663cd0fc46684836040518363ffffffff167c0100000000000000000000000000000000000000000000000000000000028152600401610e6092919061251d565b600060405180830381600087803b158015610e7a57600080fd5b505af1158015610e8e573d6000803e3d6000fd5b50505050600460009054906101000a900473ffffffffffffffffffffffffffffffffffffffff1673ffffffffffffffffffffffffffffffffffffffff16635b0fc9c383836040518363ffffffff167c0100000000000000000000000000000000000000000000000000000000028152600401610f0b92919061251d565b600060405180830381600087803b158015610f2557600080fd5b505af1158015610f39573d6000803e3d6000fd5b50505050505050565b6000806000809054906101000a900473ffffffffffffffffffffffffffffffffffffffff1673ffffffffffffffffffffffffffffffffffffffff163373ffffffffffffffffffffffffffffffffffffffff16141515610fd6576040517f08c379a0000000000000000000000000000000000000000000000000000000008152600401610fcd9061266d565b60405180910390fd5b826040015115610fe957600091506110a6565b82602001519050600560009054906101000a900473ffffffffffffffffffffffffffffffffffffffff1673ffffffffffffffffffffffffffffffffffffffff1663e7bae08b858560000151846040518463ffffffff167c010000000000000000000000000000000000000000000000000000000002815260040161106f939291906125d0565b600060405180830381600087803b15801561108957600080fd5b505af115801561109d573d6000803e3d6000fd5b50505050600191505b5092915050565b6000806000809054906101000a900473ffffffffffffffffffffffffffffffffffffffff1673ffffffffffffffffffffffffffffffffffffffff163373ffffffffffffffffffffffffffffffffffffffff16141515611141576040517f08c379a00000000000000000000000000000000000000000000000000000000081526004016111389061266d565b60405180910390fd5b60025483600001516040516020018083600019166000191681526020018260001916600019168152602001925050506040516020818303038152906040526040518082805190602001908083835b6020831015156111b4578051825260208201915060208101905060208303925061118f565b6001836020036101000a038019825116818451168082178552505050505050905001915050604051809103902090506111f283600001518230610d56565b6112008184602001516115da565b5061120f8184604001516113a2565b61121d818460800151610f42565b5061122c818460600151611237565b506001915050919050565b6000806000809054906101000a900473ffffffffffffffffffffffffffffffffffffffff1673ffffffffffffffffffffffffffffffffffffffff163373ffffffffffffffffffffffffffffffffffffffff161415156112cb576040517f08c379a00000000000000000000000000000000000000000000000000000000081526004016112c29061266d565b60405180910390fd5b8260400151156112de576000915061139b565b82602001519050600560009054906101000a900473ffffffffffffffffffffffffffffffffffffffff1673ffffffffffffffffffffffffffffffffffffffff16634f3c5e6b858560000151846040518463ffffffff167c0100000000000000000000000000000000000000000000000000000000028152600401611364939291906125d0565b600060405180830381600087803b15801561137e57600080fd5b505af1158015611392573d6000803e3d6000fd5b50505050600191505b5092915050565b6000806000809054906101000a900473ffffffffffffffffffffffffffffffffffffffff1673ffffffffffffffffffffffffffffffffffffffff163373ffffffffffffffffffffffffffffffffffffffff16141515611436576040517f08c379a000000000000000000000000000000000000000000000000000000000815260040161142d9061266d565b60405180910390fd5b82519150600090505b8181101561153757600560009054906101000a900473ffffffffffffffffffffffffffffffffffffffff1673ffffffffffffffffffffffffffffffffffffffff166310f13a8c85858481518110151561149457fe5b906020019060200201516000015186858151811015156114b057fe5b90602001906020020151602001516040518463ffffffff167c01000000000000000000000000000000000000000000000000000000000281526004016114f89392919061258b565b600060405180830381600087803b15801561151257600080fd5b505af1158015611526573d6000803e3d6000fd5b50505050808060010191505061143f565b50505050565b6000809054906101000a900473ffffffffffffffffffffffffffffffffffffffff1673ffffffffffffffffffffffffffffffffffffffff163373ffffffffffffffffffffffffffffffffffffffff161415156115ce576040517f08c379a00000000000000000000000000000000000000000000000000000000081526004016115c59061266d565b60405180910390fd5b6115d78161175e565b50565b6000806000806000809054906101000a900473ffffffffffffffffffffffffffffffffffffffff1673ffffffffffffffffffffffffffffffffffffffff163373ffffffffffffffffffffffffffffffffffffffff16141515611671576040517f08c379a00000000000000000000000000000000000000000000000000000000081526004016116689061266d565b60405180910390fd5b8460400151156116845760009350611755565b8460000151600001519250846000015160200151915084602001519050600560009054906101000a900473ffffffffffffffffffffffffffffffffffffffff1673ffffffffffffffffffffffffffffffffffffffff1663ad9e07ff878585856040518563ffffffff167c010000000000000000000000000000000000000000000000000000000002815260040161171e9493929190612546565b600060405180830381600087803b15801561173857600080fd5b505af115801561174c573d6000803e3d6000fd5b50505050600193505b50505092915050565b600073ffffffffffffffffffffffffffffffffffffffff168173ffffffffffffffffffffffffffffffffffffffff161415151561179a57600080fd5b8073ffffffffffffffffffffffffffffffffffffffff166000809054906101000a900473ffffffffffffffffffffffffffffffffffffffff1673ffffffffffffffffffffffffffffffffffffffff167f8be0079c531659141344cd1fd0a4f28419497f9722a3daafe3b4186f6b6457e060405160405180910390a3806000806101000a81548173ffffffffffffffffffffffffffffffffffffffff021916908373ffffffffffffffffffffffffffffffffffffffff16021790555050565b604080519081016040528060608152602001606081525090565b600061187e8235612839565b905092915050565b600082601f830112151561189957600080fd5b81356118ac6118a7826126fa565b6126cd565b915081818352602084019350602081019050838560208402820111156118d157600080fd5b60005b8381101561190157816118e78882611af7565b8452602084019350602083019250506001810190506118d4565b5050505092915050565b600082601f830112151561191e57600080fd5b813561193161192c82612722565b6126cd565b9150818183526020840193506020810190508360005b83811015611977578135860161195d8882611d11565b845260208401935060208301925050600181019050611947565b5050505092915050565b600082601f830112151561199457600080fd5b81356119a76119a28261274a565b6126cd565b9150818183526020840193506020810190508360005b838110156119ed57813586016119d38882611eff565b8452602084019350602083019250506001810190506119bd565b5050505092915050565b600082601f8301121515611a0a57600080fd5b8135611a1d611a1882612772565b6126cd565b9150818183526020840193506020810190508360005b83811015611a635781358601611a498882611f63565b845260208401935060208301925050600181019050611a33565b5050505092915050565b600082601f8301121515611a8057600080fd5b8135611a93611a8e8261279a565b6126cd565b9150818183526020840193506020810190508360005b83811015611ad95781358601611abf8882611f63565b845260208401935060208301925050600181019050611aa9565b5050505092915050565b6000611aef8235612859565b905092915050565b6000611b038235612865565b905092915050565b600082601f8301121515611b1e57600080fd5b8135611b31611b2c826127c2565b6126cd565b91508082526020830160208301858383011115611b4d57600080fd5b611b5883828461289d565b50505092915050565b600060808284031215611b7357600080fd5b611b7d60606126cd565b90506000611b8d84828501611eb3565b6000830152506040611ba184828501611fdf565b6020830152506060611bb584828501611ae3565b60408301525092915050565b600060808284031215611bd357600080fd5b611bdd60606126cd565b90506000611bed84828501611eb3565b6000830152506040611c0184828501611fdf565b6020830152506060611c1584828501611ae3565b60408301525092915050565b600060608284031215611c3357600080fd5b611c3d60606126cd565b9050600082013567ffffffffffffffff811115611c5957600080fd5b611c6584828501611b0b565b6000830152506020611c7984828501611fdf565b6020830152506040611c8d84828501611ae3565b60408301525092915050565b600060608284031215611cab57600080fd5b611cb560606126cd565b9050600082013567ffffffffffffffff811115611cd157600080fd5b611cdd84828501611b0b565b6000830152506020611cf184828501611fdf565b6020830152506040611d0584828501611ae3565b60408301525092915050565b60006101008284031215611d2457600080fd5b611d2e60a06126cd565b90506000611d3e84828501611af7565b6000830152506020611d5284828501611b61565b60208301525060a082013567ffffffffffffffff811115611d7257600080fd5b611d7e848285016119f7565b60408301525060c082013567ffffffffffffffff811115611d9e57600080fd5b611daa84828501611c21565b60608301525060e082013567ffffffffffffffff811115611dca57600080fd5b611dd684828501611c21565b60808301525092915050565b60006101008284031215611df557600080fd5b611dff60a06126cd565b90506000611e0f84828501611af7565b6000830152506020611e2384828501611b61565b60208301525060a082013567ffffffffffffffff811115611e4357600080fd5b611e4f848285016119f7565b60408301525060c082013567ffffffffffffffff811115611e6f57600080fd5b611e7b84828501611c21565b60608301525060e082013567ffffffffffffffff811115611e9b57600080fd5b611ea784828501611c21565b60808301525092915050565b600060408284031215611ec557600080fd5b611ecf60406126cd565b90506000611edf84828501611af7565b6000830152506020611ef384828501611af7565b60208301525092915050565b600060408284031215611f1157600080fd5b611f1b60406126cd565b90506000611f2b84828501611af7565b600083015250602082013567ffffffffffffffff811115611f4b57600080fd5b611f57848285016119f7565b60208301525092915050565b600060408284031215611f7557600080fd5b611f7f60406126cd565b9050600082013567ffffffffffffffff811115611f9b57600080fd5b611fa784828501611b0b565b600083015250602082013567ffffffffffffffff811115611fc757600080fd5b611fd384828501611b0b565b60208301525092915050565b6000611feb823561286f565b905092915050565b6000611fff825161286f565b905092915050565b60006020828403121561201957600080fd5b600061202784828501611872565b91505092915050565b6000806040838503121561204357600080fd5b600083013567ffffffffffffffff81111561205d57600080fd5b61206985828601611886565b925050602061207a85828601611872565b9150509250929050565b60006020828403121561209657600080fd5b600082013567ffffffffffffffff8111156120b057600080fd5b6120bc8482850161190b565b91505092915050565b6000602082840312156120d757600080fd5b600082013567ffffffffffffffff8111156120f157600080fd5b6120fd84828501611981565b91505092915050565b60006020828403121561211857600080fd5b600061212684828501611af7565b91505092915050565b6000806040838503121561214257600080fd5b600061215085828601611af7565b925050602083013567ffffffffffffffff81111561216d57600080fd5b61217985828601611a6d565b9150509250929050565b60008060006060848603121561219857600080fd5b60006121a686828701611af7565b93505060206121b786828701611af7565b92505060406121c886828701611872565b9150509250925092565b60008060a083850312156121e557600080fd5b60006121f385828601611af7565b925050602061220485828601611bc1565b9150509250929050565b6000806040838503121561222157600080fd5b600061222f85828601611af7565b925050602083013567ffffffffffffffff81111561224c57600080fd5b61225885828601611c99565b9150509250929050565b60008060006060848603121561227757600080fd5b600061228586828701611af7565b935050602084013567ffffffffffffffff8111156122a257600080fd5b6122ae86828701611c99565b925050604084013567ffffffffffffffff8111156122cb57600080fd5b6122d786828701611a6d565b9150509250925092565b6000602082840312156122f357600080fd5b600082013567ffffffffffffffff81111561230d57600080fd5b61231984828501611de2565b91505092915050565b60006020828403121561233457600080fd5b600061234284828501611ff3565b91505092915050565b612354816127f9565b82525050565b61236381612819565b82525050565b61237281612825565b82525050565b61238181612879565b82525050565b6123908161288b565b82525050565b60006123a1826127ee565b8084526123b58160208601602086016128ac565b6123be816128df565b602085010191505092915050565b6000600d82527f696e76616c6964206f776e6572000000000000000000000000000000000000006020830152604082019050919050565b6000602d82527f496e76616c6964206e756d626572206f6620636f6d70616e7920696e666f726d60208301527f6174696f6e2075706461746573000000000000000000000000000000000000006040830152606082019050919050565b6000602582527f496e76616c6964206e756d626572206f6620636f6d70616e7920696e666f726d60208301527f6174696f6e0000000000000000000000000000000000000000000000000000006040830152606082019050919050565b6124c68161282f565b82525050565b60006020820190506124e1600083018461234b565b92915050565b60006020820190506124fc600083018461235a565b92915050565b60006020820190506125176000830184612369565b92915050565b60006040820190506125326000830185612369565b61253f602083018461234b565b9392505050565b600060808201905061255b6000830187612369565b6125686020830186612369565b6125756040830185612369565b61258260608301846124bd565b95945050505050565b60006060820190506125a06000830186612369565b81810360208301526125b28185612396565b905081810360408301526125c68184612396565b9050949350505050565b60006060820190506125e56000830186612369565b81810360208301526125f78185612396565b905061260660408301846124bd565b949350505050565b60006040820190506126236000830185612369565b61263060208301846124bd565b9392505050565b600060208201905061264c6000830184612378565b92915050565b60006020820190506126676000830184612387565b92915050565b60006020820190508181036000830152612686816123cc565b9050919050565b600060208201905081810360008301526126a681612403565b9050919050565b600060208201905081810360008301526126c681612460565b9050919050565b6000604051905081810181811067ffffffffffffffff821117156126f057600080fd5b8060405250919050565b600067ffffffffffffffff82111561271157600080fd5b602082029050602081019050919050565b600067ffffffffffffffff82111561273957600080fd5b602082029050602081019050919050565b600067ffffffffffffffff82111561276157600080fd5b602082029050602081019050919050565b600067ffffffffffffffff82111561278957600080fd5b602082029050602081019050919050565b600067ffffffffffffffff8211156127b157600080fd5b602082029050602081019050919050565b600067ffffffffffffffff8211156127d957600080fd5b601f19601f8301169050602081019050919050565b600081519050919050565b600073ffffffffffffffffffffffffffffffffffffffff82169050919050565b60008115159050919050565b6000819050919050565b6000819050919050565b600073ffffffffffffffffffffffffffffffffffffffff82169050919050565b60008115159050919050565b6000819050919050565b6000819050919050565b6000612884826127f9565b9050919050565b6000612896826127f9565b9050919050565b82818337600083830152505050565b60005b838110156128ca5780820151818401526020810190506128af565b838111156128d9576000848401525b50505050565b6000601f19601f83011690509190505600a265627a7a72305820027dd6c94a946bf74938e4f42defbd80bec57239ae7780ca1d28447045ab88166c6578706572696d656e74616cf50037",
  "source": "pragma solidity >=0.4.24;\n\npragma experimental ABIEncoderV2;\n\nimport \"../lib/Ownable.sol\";\nimport \"../ens/ENS.sol\";\nimport \"../companyregistry/KomgoMetaResolver.sol\";\nimport \"../companyregistry/KomgoRegistrar.sol\";\nimport \"../companyregistry/KomgoResolver.sol\";\n\ncontract KomgoOnboarder is Ownable {\n    // namehash komgometaresolver.contract.komgo\n    bytes32 KOMGO_META_RESOLVER_NODE = 0x255fa55edcca0b83c72d43f3a4b090aec6b7de747c9df042d56b2c3b6d97a873;\n    // namehash meta.komgo\n    bytes32 KOMGO_META_NODE = 0x9c19ca3566862e19c7779f1af09f5b2883d8880917cedcbf4ae505a775fa518a;\n    // namehash komgoregistrar.contract.komgo\n    bytes32 KOMGO_REGISTRAR_NODE = 0x56153f5af74cd5af058095635c60e6cff57544a8dd167ebebd5331bf3ccfceec;\n\n    struct MessagingPubKey {\n        string key;\n        uint termDate;\n        bool isEmpty;\n    }\n\n    struct PublicKey {\n        bytes32 x;\n        bytes32 y;\n    }\n\n    struct EthPubKey {\n        PublicKey publicKey;\n        uint termDate;\n        bool isEmpty;\n    }\n\n    struct TextEntry {\n        string key;\n        string value;\n    }\n\n    struct TextEntryUpdate {\n        bytes32 node;\n        TextEntry[] textEntries;\n    }\n\n    struct OnboardingInformation {\n        bytes32 staticIdHashed;\n        EthPubKey ethPubKey;\n        TextEntry[] textEntries;\n        MessagingPubKey komgoMessagingPubKey;\n        MessagingPubKey vaktMessagingPubKey;\n    }\n\n    ENS ens;\n\n    KomgoMetaResolver public komgoMetaResolver;\n\n    KomgoRegistrar public komgoRegistrar;\n\n    constructor(address _ensAddress) public {\n        ens = ENS(_ensAddress);\n        address resolverAddress = ens.resolver(KOMGO_META_RESOLVER_NODE);\n        require(resolverAddress != address(0), \"Invalid resolver address\");\n        KomgoResolver komgoResolver = KomgoResolver(resolverAddress);\n        address metaResolverAddress = komgoResolver.addr(KOMGO_META_RESOLVER_NODE);\n        require(metaResolverAddress != address(0), \"Invalid meta resolver address\");\n        komgoMetaResolver = KomgoMetaResolver(metaResolverAddress);\n\n        address registrarAddress = komgoResolver.addr(KOMGO_REGISTRAR_NODE);\n        require(registrarAddress != address(0), \"Invalid registrar address\");\n        komgoRegistrar = KomgoRegistrar(registrarAddress);\n    }\n\n    function addCompanyOnboardingInformation(OnboardingInformation memory _onboardInfo) public onlyOwner() returns(bool){\n        bytes32 node =  keccak256(abi.encodePacked(KOMGO_META_NODE, _onboardInfo.staticIdHashed));\n        registerCompanyNode(_onboardInfo.staticIdHashed, node, address(this));\n        addEthereumPublicKey(node, _onboardInfo.ethPubKey);\n        addTextEntries(node, _onboardInfo.textEntries);\n        addVaktMessagingPublicKey(node, _onboardInfo.vaktMessagingPubKey);\n        addKomgoMessagingPublicKey(node, _onboardInfo.komgoMessagingPubKey);\n        return true;\n    }\n\n    function addCompaniesOnboardingInformation(OnboardingInformation[] memory _onboardInformation) public onlyOwner() returns(bool) {\n        require(_onboardInformation.length > 0, \"Invalid number of company information\");\n        uint256 arrayLength = _onboardInformation.length;\n        for (uint256 i = 0; i < arrayLength; i++) {\n            addCompanyOnboardingInformation(_onboardInformation[i]);\n        }\n        return true;\n    }\n\n    function addEthereumPublicKey(bytes32 _node, EthPubKey memory _ethPubKey) public onlyOwner() returns(bool) {\n        if (_ethPubKey.isEmpty) {\n            return false;\n        }\n        bytes32 xPublicKey = _ethPubKey.publicKey.x;\n        bytes32 yPublicKey = _ethPubKey.publicKey.y;\n        uint termDate = _ethPubKey.termDate;\n        komgoMetaResolver.addEthereumPublicKey(_node, xPublicKey, yPublicKey, termDate);\n        return true;\n    }\n\n    function addTextEntries(bytes32 _node, TextEntry[] memory _textEntries) public onlyOwner() {\n        uint256 entriesLength = _textEntries.length;\n        for (uint256 i = 0; i < entriesLength; i++) {\n            komgoMetaResolver.setText(_node, _textEntries[i].key, _textEntries[i].value);\n        }\n    }\n\n    function setTextEntriesBatch(TextEntryUpdate[] memory _updates) public onlyOwner() {\n        uint256 entriesLength = _updates.length;\n        require(entriesLength > 0, \"Invalid number of company information updates\");\n        for (uint256 i = 0; i < entriesLength; i++) {\n            addTextEntries(_updates[i].node, _updates[i].textEntries);\n        }\n    }\n\n    function registerCompanyNode(bytes32 _staticIdHashed, bytes32 _node, address _ownerAddress) public onlyOwner() {\n        komgoRegistrar.registerAndSetResolvers(_staticIdHashed, _ownerAddress);\n        ens.setOwner(_node, _ownerAddress);\n    }\n\n    function addVaktMessagingPublicKey(bytes32 _node, MessagingPubKey memory _messagingPubKey) public onlyOwner() returns(bool) {\n        if (_messagingPubKey.isEmpty) {\n            return false;\n        }\n        uint termDate = _messagingPubKey.termDate;\n        komgoMetaResolver.addVaktMessagingPublicKey(_node, _messagingPubKey.key, termDate);\n        return true;\n    }\n\n    function setVaktMessgingPublicKey(bytes32 _node, MessagingPubKey memory _messagingPubKey, TextEntry[] memory _textEntries) public onlyOwner() {\n        addVaktMessagingPublicKey(_node, _messagingPubKey);\n        addTextEntries(_node, _textEntries);\n    }\n\n    function revokeVaktMessagingPublicKey(bytes32 _node) public onlyOwner() {\n        komgoMetaResolver.revokeVaktMessagingPublicKey(_node, komgoMetaResolver.vaktMessagingPublicKeysLength(_node) - 1);\n        TextEntry[] memory nulledEntries = new TextEntry[](2);\n        nulledEntries[0] = TextEntry(\"vaktStaticId\", \"\");\n        nulledEntries[1] = TextEntry(\"vaktMnid\", \"\");\n        addTextEntries(_node, nulledEntries);\n    }\n\n    function addKomgoMessagingPublicKey(bytes32 _node, MessagingPubKey memory _messagingPubKey) public onlyOwner() returns(bool) {\n        if (_messagingPubKey.isEmpty) {\n            return false;\n        }\n        uint termDate = _messagingPubKey.termDate;\n        komgoMetaResolver.addKomgoMessagingPublicKey(_node, _messagingPubKey.key, termDate);\n        return true;\n    }\n\n    function transferCompanyNodes(bytes32[] _nodes, address _newOwner) public onlyOwner() {\n        for (uint256 i = 0; i < _nodes.length; i++) {\n            ens.setOwner(_nodes[i], _newOwner);\n        }\n    }\n\n    function transferRegistrarOwnership(address _newOwner) public onlyOwner() {\n        komgoRegistrar.transferOwnership(_newOwner);\n    }\n}",
  "sourcePath": "node_modules/@komgo/smart-contracts/contracts/onboard/KomgoOnboarder.sol",
  "compiler": {
    "name": "solc",
    "version": "0.4.25+commit.59dbf8f1.Emscripten.clang"
  },
  "schemaVersion": "2.0.1",
  "updatedAt": "2019-07-23T13:23:37.778Z"
}