{
  "contractName": "KomgoMetaResolver",
  "abi": [
    {
      "constant": false,
      "inputs": [
        {
          "name": "_newResolver",
          "type": "address"
        }
      ],
      "name": "updateImplementation",
      "outputs": [],
      "payable": false,
      "stateMutability": "nonpayable",
      "type": "function"
    },
    {
      "constant": true,
      "inputs": [
        {
          "name": "node",
          "type": "bytes32"
        },
        {
          "name": "contentTypes",
          "type": "uint256"
        }
      ],
      "name": "ABI",
      "outputs": [
        {
          "name": "contentType",
          "type": "uint256"
        },
        {
          "name": "data",
          "type": "bytes"
        }
      ],
      "payable": false,
      "stateMutability": "view",
      "type": "function"
    },
    {
      "constant": true,
      "inputs": [
        {
          "name": "node",
          "type": "bytes32"
        }
      ],
      "name": "addr",
      "outputs": [
        {
          "name": "",
          "type": "address"
        }
      ],
      "payable": false,
      "stateMutability": "view",
      "type": "function"
    },
    {
      "constant": true,
      "inputs": [],
      "name": "proxiableUUID",
      "outputs": [
        {
          "name": "",
          "type": "bytes32"
        }
      ],
      "payable": false,
      "stateMutability": "pure",
      "type": "function"
    },
    {
      "constant": false,
      "inputs": [
        {
          "name": "node",
          "type": "bytes32"
        },
        {
          "name": "contentType",
          "type": "uint256"
        },
        {
          "name": "data",
          "type": "bytes"
        }
      ],
      "name": "setABI",
      "outputs": [],
      "payable": false,
      "stateMutability": "nonpayable",
      "type": "function"
    },
    {
      "constant": true,
      "inputs": [],
      "name": "owner",
      "outputs": [
        {
          "name": "",
          "type": "address"
        }
      ],
      "payable": false,
      "stateMutability": "view",
      "type": "function"
    },
    {
      "constant": false,
      "inputs": [
        {
          "name": "_ensAddr",
          "type": "address"
        }
      ],
      "name": "initialise",
      "outputs": [],
      "payable": false,
      "stateMutability": "nonpayable",
      "type": "function"
    },
    {
      "constant": false,
      "inputs": [
        {
          "name": "node",
          "type": "bytes32"
        },
        {
          "name": "addr",
          "type": "address"
        }
      ],
      "name": "setAddr",
      "outputs": [],
      "payable": false,
      "stateMutability": "nonpayable",
      "type": "function"
    },
    {
      "constant": false,
      "inputs": [
        {
          "name": "_newOwner",
          "type": "address"
        }
      ],
      "name": "transferOwnership",
      "outputs": [],
      "payable": false,
      "stateMutability": "nonpayable",
      "type": "function"
    },
    {
      "anonymous": false,
      "inputs": [
        {
          "indexed": false,
          "name": "_node",
          "type": "bytes32"
        },
        {
          "indexed": false,
          "name": "_key",
          "type": "string"
        },
        {
          "indexed": false,
          "name": "_value",
          "type": "string"
        }
      ],
      "name": "TextChanged",
      "type": "event"
    },
    {
      "anonymous": false,
      "inputs": [
        {
          "indexed": false,
          "name": "_node",
          "type": "bytes32"
        },
        {
          "indexed": false,
          "name": "_xPublicKey",
          "type": "bytes32"
        },
        {
          "indexed": false,
          "name": "_yPublicKey",
          "type": "bytes32"
        },
        {
          "indexed": false,
          "name": "_address",
          "type": "address"
        },
        {
          "indexed": false,
          "name": "_termDate",
          "type": "uint256"
        }
      ],
      "name": "EthPubKeyAdded",
      "type": "event"
    },
    {
      "anonymous": false,
      "inputs": [
        {
          "indexed": false,
          "name": "_node",
          "type": "bytes32"
        },
        {
          "indexed": false,
          "name": "_index",
          "type": "uint256"
        }
      ],
      "name": "EthPubKeyRevoked",
      "type": "event"
    },
    {
      "anonymous": false,
      "inputs": [
        {
          "indexed": false,
          "name": "_node",
          "type": "bytes32"
        },
        {
          "indexed": false,
          "name": "_pubKey",
          "type": "string"
        },
        {
          "indexed": false,
          "name": "_termDate",
          "type": "uint256"
        }
      ],
      "name": "KomgoMessagingPubKeyAdded",
      "type": "event"
    },
    {
      "anonymous": false,
      "inputs": [
        {
          "indexed": false,
          "name": "_node",
          "type": "bytes32"
        },
        {
          "indexed": false,
          "name": "_index",
          "type": "uint256"
        }
      ],
      "name": "KomgoMessagingPubKeyRevoked",
      "type": "event"
    },
    {
      "anonymous": false,
      "inputs": [
        {
          "indexed": false,
          "name": "_node",
          "type": "bytes32"
        },
        {
          "indexed": false,
          "name": "_pubKey",
          "type": "string"
        },
        {
          "indexed": false,
          "name": "_termDate",
          "type": "uint256"
        }
      ],
      "name": "VaktMessagingPubKeyAdded",
      "type": "event"
    },
    {
      "anonymous": false,
      "inputs": [
        {
          "indexed": false,
          "name": "_node",
          "type": "bytes32"
        },
        {
          "indexed": false,
          "name": "_index",
          "type": "uint256"
        }
      ],
      "name": "VaktMessagingPubKeyRevoked",
      "type": "event"
    },
    {
      "anonymous": false,
      "inputs": [
        {
          "indexed": false,
          "name": "_node",
          "type": "bytes32"
        },
        {
          "indexed": false,
          "name": "_reversedNode",
          "type": "bytes32"
        }
      ],
      "name": "ReverseNodeChanged",
      "type": "event"
    },
    {
      "anonymous": false,
      "inputs": [
        {
          "indexed": false,
          "name": "node",
          "type": "bytes32"
        },
        {
          "indexed": false,
          "name": "a",
          "type": "address"
        }
      ],
      "name": "AddrChanged",
      "type": "event"
    },
    {
      "anonymous": false,
      "inputs": [
        {
          "indexed": false,
          "name": "node",
          "type": "bytes32"
        },
        {
          "indexed": true,
          "name": "contentType",
          "type": "uint256"
        },
        {
          "indexed": false,
          "name": "data",
          "type": "bytes"
        }
      ],
      "name": "ABIChanged",
      "type": "event"
    },
    {
      "anonymous": false,
      "inputs": [
        {
          "indexed": true,
          "name": "previousOwner",
          "type": "address"
        },
        {
          "indexed": true,
          "name": "newOwner",
          "type": "address"
        }
      ],
      "name": "OwnershipTransferred",
      "type": "event"
    },
    {
      "constant": false,
      "inputs": [
        {
          "name": "_node",
          "type": "bytes32"
        },
        {
          "name": "_xPublicKey",
          "type": "bytes32"
        },
        {
          "name": "_yPublicKey",
          "type": "bytes32"
        },
        {
          "name": "_termDate",
          "type": "uint256"
        }
      ],
      "name": "addEthereumPublicKey",
      "outputs": [],
      "payable": false,
      "stateMutability": "nonpayable",
      "type": "function"
    },
    {
      "constant": false,
      "inputs": [
        {
          "name": "_node",
          "type": "bytes32"
        },
        {
          "name": "_jwk",
          "type": "string"
        },
        {
          "name": "_termDate",
          "type": "uint256"
        }
      ],
      "name": "addKomgoMessagingPublicKey",
      "outputs": [],
      "payable": false,
      "stateMutability": "nonpayable",
      "type": "function"
    },
    {
      "constant": false,
      "inputs": [
        {
          "name": "_node",
          "type": "bytes32"
        },
        {
          "name": "_jwk",
          "type": "string"
        },
        {
          "name": "_termDate",
          "type": "uint256"
        }
      ],
      "name": "addVaktMessagingPublicKey",
      "outputs": [],
      "payable": false,
      "stateMutability": "nonpayable",
      "type": "function"
    },
    {
      "constant": false,
      "inputs": [
        {
          "name": "_node",
          "type": "bytes32"
        },
        {
          "name": "_index",
          "type": "uint256"
        }
      ],
      "name": "revokeEthereumPublicKey",
      "outputs": [],
      "payable": false,
      "stateMutability": "nonpayable",
      "type": "function"
    },
    {
      "constant": false,
      "inputs": [
        {
          "name": "_node",
          "type": "bytes32"
        },
        {
          "name": "_index",
          "type": "uint256"
        }
      ],
      "name": "revokeKomgoMessagingPublicKey",
      "outputs": [],
      "payable": false,
      "stateMutability": "nonpayable",
      "type": "function"
    },
    {
      "constant": false,
      "inputs": [
        {
          "name": "_node",
          "type": "bytes32"
        },
        {
          "name": "_index",
          "type": "uint256"
        }
      ],
      "name": "revokeVaktMessagingPublicKey",
      "outputs": [],
      "payable": false,
      "stateMutability": "nonpayable",
      "type": "function"
    },
    {
      "constant": false,
      "inputs": [
        {
          "name": "node",
          "type": "bytes32"
        },
        {
          "name": "key",
          "type": "string"
        },
        {
          "name": "value",
          "type": "string"
        }
      ],
      "name": "setText",
      "outputs": [],
      "payable": false,
      "stateMutability": "nonpayable",
      "type": "function"
    },
    {
      "constant": true,
      "inputs": [
        {
          "name": "node",
          "type": "bytes32"
        },
        {
          "name": "key",
          "type": "string"
        }
      ],
      "name": "text",
      "outputs": [
        {
          "name": "",
          "type": "string"
        }
      ],
      "payable": false,
      "stateMutability": "view",
      "type": "function"
    },
    {
      "constant": true,
      "inputs": [
        {
          "name": "_node",
          "type": "bytes32"
        },
        {
          "name": "_index",
          "type": "uint256"
        }
      ],
      "name": "currentEthereumPublicKey",
      "outputs": [
        {
          "name": "",
          "type": "bytes32"
        },
        {
          "name": "",
          "type": "bytes32"
        },
        {
          "name": "",
          "type": "uint256"
        },
        {
          "name": "",
          "type": "uint256"
        },
        {
          "name": "",
          "type": "bool"
        },
        {
          "name": "",
          "type": "bool"
        }
      ],
      "payable": false,
      "stateMutability": "view",
      "type": "function"
    },
    {
      "constant": true,
      "inputs": [
        {
          "name": "_node",
          "type": "bytes32"
        }
      ],
      "name": "ethereumPublicKeysLength",
      "outputs": [
        {
          "name": "",
          "type": "uint256"
        }
      ],
      "payable": false,
      "stateMutability": "view",
      "type": "function"
    },
    {
      "constant": true,
      "inputs": [
        {
          "name": "_node",
          "type": "bytes32"
        },
        {
          "name": "_index",
          "type": "uint256"
        }
      ],
      "name": "currentKomgoMessagingPublicKey",
      "outputs": [
        {
          "name": "",
          "type": "string"
        },
        {
          "name": "",
          "type": "uint256"
        },
        {
          "name": "",
          "type": "uint256"
        },
        {
          "name": "",
          "type": "bool"
        },
        {
          "name": "",
          "type": "bool"
        }
      ],
      "payable": false,
      "stateMutability": "view",
      "type": "function"
    },
    {
      "constant": true,
      "inputs": [
        {
          "name": "_node",
          "type": "bytes32"
        }
      ],
      "name": "komgoMessagingPublicKeysLength",
      "outputs": [
        {
          "name": "",
          "type": "uint256"
        }
      ],
      "payable": false,
      "stateMutability": "view",
      "type": "function"
    },
    {
      "constant": true,
      "inputs": [
        {
          "name": "_node",
          "type": "bytes32"
        },
        {
          "name": "_index",
          "type": "uint256"
        }
      ],
      "name": "currentVaktMessagingPublicKey",
      "outputs": [
        {
          "name": "",
          "type": "string"
        },
        {
          "name": "",
          "type": "uint256"
        },
        {
          "name": "",
          "type": "uint256"
        },
        {
          "name": "",
          "type": "bool"
        },
        {
          "name": "",
          "type": "bool"
        }
      ],
      "payable": false,
      "stateMutability": "view",
      "type": "function"
    },
    {
      "constant": true,
      "inputs": [
        {
          "name": "_node",
          "type": "bytes32"
        }
      ],
      "name": "vaktMessagingPublicKeysLength",
      "outputs": [
        {
          "name": "",
          "type": "uint256"
        }
      ],
      "payable": false,
      "stateMutability": "view",
      "type": "function"
    },
    {
      "constant": true,
      "inputs": [
        {
          "name": "_node",
          "type": "bytes32"
        }
      ],
      "name": "reverseNode",
      "outputs": [
        {
          "name": "",
          "type": "bytes32"
        }
      ],
      "payable": false,
      "stateMutability": "view",
      "type": "function"
    },
    {
      "constant": true,
      "inputs": [
        {
          "name": "_node",
          "type": "bytes32"
        }
      ],
      "name": "staticId",
      "outputs": [
        {
          "name": "",
          "type": "string"
        }
      ],
      "payable": false,
      "stateMutability": "view",
      "type": "function"
    },
    {
      "constant": true,
      "inputs": [
        {
          "name": "_node",
          "type": "bytes32"
        }
      ],
      "name": "komgoMnid",
      "outputs": [
        {
          "name": "",
          "type": "string"
        }
      ],
      "payable": false,
      "stateMutability": "view",
      "type": "function"
    },
    {
      "constant": true,
      "inputs": [
        {
          "name": "_node",
          "type": "bytes32"
        }
      ],
      "name": "vaktMnid",
      "outputs": [
        {
          "name": "",
          "type": "string"
        }
      ],
      "payable": false,
      "stateMutability": "view",
      "type": "function"
    },
    {
      "constant": true,
      "inputs": [
        {
          "name": "_node",
          "type": "bytes32"
        }
      ],
      "name": "x500Name",
      "outputs": [
        {
          "name": "",
          "type": "string"
        }
      ],
      "payable": false,
      "stateMutability": "view",
      "type": "function"
    },
    {
      "constant": true,
      "inputs": [
        {
          "name": "_node",
          "type": "bytes32"
        }
      ],
      "name": "nodeKeys",
      "outputs": [
        {
          "name": "",
          "type": "string"
        }
      ],
      "payable": false,
      "stateMutability": "view",
      "type": "function"
    },
    {
      "constant": true,
      "inputs": [
        {
          "name": "_node",
          "type": "bytes32"
        }
      ],
      "name": "products",
      "outputs": [
        {
          "name": "",
          "type": "string"
        }
      ],
      "payable": false,
      "stateMutability": "view",
      "type": "function"
    },
    {
      "constant": true,
      "inputs": [
        {
          "name": "_node",
          "type": "bytes32"
        }
      ],
      "name": "vaktStaticId",
      "outputs": [
        {
          "name": "",
          "type": "string"
        }
      ],
      "payable": false,
      "stateMutability": "view",
      "type": "function"
    },
    {
      "constant": true,
      "inputs": [
        {
          "name": "_node",
          "type": "bytes32"
        }
      ],
      "name": "isDeactivated",
      "outputs": [
        {
          "name": "",
          "type": "string"
        }
      ],
      "payable": false,
      "stateMutability": "view",
      "type": "function"
    },
    {
      "constant": true,
      "inputs": [
        {
          "name": "_node",
          "type": "bytes32"
        }
      ],
      "name": "hasSWIFTKey",
      "outputs": [
        {
          "name": "",
          "type": "string"
        }
      ],
      "payable": false,
      "stateMutability": "view",
      "type": "function"
    },
    {
      "constant": true,
      "inputs": [
        {
          "name": "_node",
          "type": "bytes32"
        }
      ],
      "name": "isFinancialInstitution",
      "outputs": [
        {
          "name": "",
          "type": "string"
        }
      ],
      "payable": false,
      "stateMutability": "view",
      "type": "function"
    },
    {
      "constant": true,
      "inputs": [
        {
          "name": "_node",
          "type": "bytes32"
        }
      ],
      "name": "isMember",
      "outputs": [
        {
          "name": "",
          "type": "string"
        }
      ],
      "payable": false,
      "stateMutability": "view",
      "type": "function"
    },
    {
      "constant": true,
      "inputs": [
        {
          "name": "_node",
          "type": "bytes32"
        }
      ],
      "name": "legalEntityName",
      "outputs": [
        {
          "name": "",
          "type": "string"
        }
      ],
      "payable": false,
      "stateMutability": "view",
      "type": "function"
    }
  ],
  "bytecode": "0x6080604052336000806101000a81548173ffffffffffffffffffffffffffffffffffffffff021916908373ffffffffffffffffffffffffffffffffffffffff16021790555061541f806100536000396000f3006080604052600436106101c2576000357c0100000000000000000000000000000000000000000000000000000000900463ffffffff168063025b22bc146101c75780630b587e381461020a57806310f13a8c146102b4578063176d2f3b146103715780632203ab56146103b6578063318c9e57146104715780633b3b57de146104b65780634f3c5e6b14610527578063511bcee5146105a857806352d1902d14610652578063565d8a5e14610685578063574106151461075d57806359d1d43c14610807578063623195b0146108f757806368833c87146109785780636d368bf9146109c55780637905439114610a9d5780637d5ef1ac14610b475780637dc0829914610bd15780638d4e631214610c7b5780638da5cb5b14610cb65780638ebb091c14610d0d578063966568db14610db75780639aa62d6814610df25780639d6a890f14610e9c578063a110eff714610edf578063a780eddf14610f1a578063aba3e21614610fc4578063ad9e07ff1461106e578063af9ad101146110c5578063b94dbd371461110a578063cb4cf15b146111b4578063d5fa2b001461125e578063e7bae08b146112af578063ed10857114611330578063f2fde38b146113da575b600080fd5b3480156101d357600080fd5b50610208600480360381019080803573ffffffffffffffffffffffffffffffffffffffff16906020019092919050505061141d565b005b34801561021657600080fd5b5061023960048036038101908080356000191690602001909291905050506114ed565b6040518080602001828103825283818151815260200191508051906020019080838360005b8381101561027957808201518184015260208101905061025e565b50505050905090810190601f1680156102a65780820380516001836020036101000a031916815260200191505b509250505060405180910390f35b3480156102c057600080fd5b5061036f6004803603810190808035600019169060200190929190803590602001908201803590602001908080601f0160208091040260200160405190810160405280939291908181526020018383808284378201915050505050509192919290803590602001908201803590602001908080601f016020809104026020016040519081016040528093929190818152602001838380828437820191505050505050919291929050505061164b565b005b34801561037d57600080fd5b506103a06004803603810190808035600019169060200190929190505050611b9a565b6040518082815260200191505060405180910390f35b3480156103c257600080fd5b506103ef600480360381019080803560001916906020019092919080359060200190929190505050611bc5565b6040518083815260200180602001828103825283818151815260200191508051906020019080838360005b8381101561043557808201518184015260208101905061041a565b50505050905090810190601f1680156104625780820380516001836020036101000a031916815260200191505b50935050505060405180910390f35b34801561047d57600080fd5b506104a06004803603810190808035600019169060200190929190505050611d08565b6040518082815260200191505060405180910390f35b3480156104c257600080fd5b506104e56004803603810190808035600019169060200190929190505050611d33565b604051808273ffffffffffffffffffffffffffffffffffffffff1673ffffffffffffffffffffffffffffffffffffffff16815260200191505060405180910390f35b34801561053357600080fd5b506105a66004803603810190808035600019169060200190929190803590602001908201803590602001908080601f016020809104026020016040519081016040528093929190818152602001838380828437820191505050505050919291929080359060200190929190505050611d7b565b005b3480156105b457600080fd5b506105d7600480360381019080803560001916906020019092919050505061214d565b6040518080602001828103825283818151815260200191508051906020019080838360005b838110156106175780820151818401526020810190506105fc565b50505050905090810190601f1680156106445780820380516001836020036101000a031916815260200191505b509250505060405180910390f35b34801561065e57600080fd5b506106676122ab565b60405180826000191660001916815260200191505060405180910390f35b34801561069157600080fd5b506106be6004803603810190808035600019169060200190929190803590602001909291905050506122d6565b60405180806020018681526020018581526020018415151515815260200183151515158152602001828103825287818151815260200191508051906020019080838360005b8381101561071e578082015181840152602081019050610703565b50505050905090810190601f16801561074b5780820380516001836020036101000a031916815260200191505b50965050505050505060405180910390f35b34801561076957600080fd5b5061078c60048036038101908080356000191690602001909291905050506123fe565b6040518080602001828103825283818151815260200191508051906020019080838360005b838110156107cc5780820151818401526020810190506107b1565b50505050905090810190601f1680156107f95780820380516001836020036101000a031916815260200191505b509250505060405180910390f35b34801561081357600080fd5b5061087c6004803603810190808035600019169060200190929190803590602001908201803590602001908080601f016020809104026020016040519081016040528093929190818152602001838380828437820191505050505050919291929050505061255c565b6040518080602001828103825283818151815260200191508051906020019080838360005b838110156108bc5780820151818401526020810190506108a1565b50505050905090810190601f1680156108e95780820380516001836020036101000a031916815260200191505b509250505060405180910390f35b34801561090357600080fd5b50610976600480360381019080803560001916906020019092919080359060200190929190803590602001908201803590602001908080601f0160208091040260200160405190810160405280939291908181526020018383808284378201915050505050509192919290505050612686565b005b34801561098457600080fd5b506109a76004803603810190808035600019169060200190929190505050612908565b60405180826000191660001916815260200191505060405180910390f35b3480156109d157600080fd5b506109fe600480360381019080803560001916906020019092919080359060200190929190505050612930565b60405180806020018681526020018581526020018415151515815260200183151515158152602001828103825287818151815260200191508051906020019080838360005b83811015610a5e578082015181840152602081019050610a43565b50505050905090810190601f168015610a8b5780820380516001836020036101000a031916815260200191505b50965050505050505060405180910390f35b348015610aa957600080fd5b50610acc6004803603810190808035600019169060200190929190505050612a58565b6040518080602001828103825283818151815260200191508051906020019080838360005b83811015610b0c578082015181840152602081019050610af1565b50505050905090810190601f168015610b395780820380516001836020036101000a031916815260200191505b509250505060405180910390f35b348015610b5357600080fd5b50610b80600480360381019080803560001916906020019092919080359060200190929190505050612bb6565b60405180876000191660001916815260200186600019166000191681526020018581526020018481526020018315151515815260200182151515158152602001965050505050505060405180910390f35b348015610bdd57600080fd5b50610c006004803603810190808035600019169060200190929190505050612c51565b6040518080602001828103825283818151815260200191508051906020019080838360005b83811015610c40578082015181840152602081019050610c25565b50505050905090810190601f168015610c6d5780820380516001836020036101000a031916815260200191505b509250505060405180910390f35b348015610c8757600080fd5b50610cb4600480360381019080803560001916906020019092919080359060200190929190505050612daf565b005b348015610cc257600080fd5b50610ccb612fc7565b604051808273ffffffffffffffffffffffffffffffffffffffff1673ffffffffffffffffffffffffffffffffffffffff16815260200191505060405180910390f35b348015610d1957600080fd5b50610d3c6004803603810190808035600019169060200190929190505050612fec565b6040518080602001828103825283818151815260200191508051906020019080838360005b83811015610d7c578082015181840152602081019050610d61565b50505050905090810190601f168015610da95780820380516001836020036101000a031916815260200191505b509250505060405180910390f35b348015610dc357600080fd5b50610df060048036038101908080356000191690602001909291908035906020019092919050505061314a565b005b348015610dfe57600080fd5b50610e216004803603810190808035600019169060200190929190505050613362565b6040518080602001828103825283818151815260200191508051906020019080838360005b83811015610e61578082015181840152602081019050610e46565b50505050905090810190601f168015610e8e5780820380516001836020036101000a031916815260200191505b509250505060405180910390f35b348015610ea857600080fd5b50610edd600480360381019080803573ffffffffffffffffffffffffffffffffffffffff1690602001909291905050506134c0565b005b348015610eeb57600080fd5b50610f1860048036038101908080356000191690602001909291908035906020019092919050505061368e565b005b348015610f2657600080fd5b50610f4960048036038101908080356000191690602001909291905050506138a6565b6040518080602001828103825283818151815260200191508051906020019080838360005b83811015610f89578082015181840152602081019050610f6e565b50505050905090810190601f168015610fb65780820380516001836020036101000a031916815260200191505b509250505060405180910390f35b348015610fd057600080fd5b50610ff36004803603810190808035600019169060200190929190505050613a04565b6040518080602001828103825283818151815260200191508051906020019080838360005b83811015611033578082015181840152602081019050611018565b50505050905090810190601f1680156110605780820380516001836020036101000a031916815260200191505b509250505060405180910390f35b34801561107a57600080fd5b506110c360048036038101908080356000191690602001909291908035600019169060200190929190803560001916906020019092919080359060200190929190505050613b62565b005b3480156110d157600080fd5b506110f46004803603810190808035600019169060200190929190505050614393565b6040518082815260200191505060405180910390f35b34801561111657600080fd5b5061113960048036038101908080356000191690602001909291905050506143be565b6040518080602001828103825283818151815260200191508051906020019080838360005b8381101561117957808201518184015260208101905061115e565b50505050905090810190601f1680156111a65780820380516001836020036101000a031916815260200191505b509250505060405180910390f35b3480156111c057600080fd5b506111e3600480360381019080803560001916906020019092919050505061451c565b6040518080602001828103825283818151815260200191508051906020019080838360005b83811015611223578082015181840152602081019050611208565b50505050905090810190601f1680156112505780820380516001836020036101000a031916815260200191505b509250505060405180910390f35b34801561126a57600080fd5b506112ad6004803603810190808035600019169060200190929190803573ffffffffffffffffffffffffffffffffffffffff16906020019092919050505061467a565b005b3480156112bb57600080fd5b5061132e6004803603810190808035600019169060200190929190803590602001908201803590602001908080601f0160208091040260200160405190810160405280939291908181526020018383808284378201915050505050509192919290803590602001909291905050506148c6565b005b34801561133c57600080fd5b5061135f6004803603810190808035600019169060200190929190505050614c98565b6040518080602001828103825283818151815260200191508051906020019080838360005b8381101561139f578082015181840152602081019050611384565b50505050905090810190601f1680156113cc5780820380516001836020036101000a031916815260200191505b509250505060405180910390f35b3480156113e657600080fd5b5061141b600480360381019080803573ffffffffffffffffffffffffffffffffffffffff169060200190929190505050614df6565b005b6000809054906101000a900473ffffffffffffffffffffffffffffffffffffffff1673ffffffffffffffffffffffffffffffffffffffff163373ffffffffffffffffffffffffffffffffffffffff161415156114e1576040517f08c379a000000000000000000000000000000000000000000000000000000000815260040180806020018281038252600d8152602001807f696e76616c6964206f776e65720000000000000000000000000000000000000081525060200191505060405180910390fd5b6114ea81614ec6565b50565b60606003600083600019166000191681526020019081526020016000206000016040805190810160405280600f81526020017f6c6567616c456e746974794e616d6500000000000000000000000000000000008152506040518082805190602001908083835b6020831015156115785780518252602082019150602081019050602083039250611553565b6001836020036101000a03801982511681845116808217855250505050505090500191505090815260200160405180910390208054600181600116156101000203166002900480601f01602080910402602001604051908101604052809291908181526020018280546001816001161561010002031660029004801561163f5780601f106116145761010080835404028352916020019161163f565b820191906000526020600020905b81548152906001019060200180831161162257829003601f168201915b50505050509050919050565b823373ffffffffffffffffffffffffffffffffffffffff16600160009054906101000a900473ffffffffffffffffffffffffffffffffffffffff1673ffffffffffffffffffffffffffffffffffffffff166302571be3836040518263ffffffff167c0100000000000000000000000000000000000000000000000000000000028152600401808260001916600019168152602001915050602060405180830381600087803b1580156116fc57600080fd5b505af1158015611710573d6000803e3d6000fd5b505050506040513d602081101561172657600080fd5b810190808051906020019092919050505073ffffffffffffffffffffffffffffffffffffffff161415156117c2576040517f08c379a000000000000000000000000000000000000000000000000000000000815260040180806020018281038252600d8152602001807f496e76616c6964206f776e65720000000000000000000000000000000000000081525060200191505060405180910390fd5b6040805190810160405280600881526020017f73746174696349640000000000000000000000000000000000000000000000008152506040518082805190602001908083835b60208310151561182d5780518252602082019150602081019050602083039250611808565b6001836020036101000a038019825116818451168082178552505050505050905001915050604051809103902060001916836040518082805190602001908083835b602083101515611894578051825260208201915060208101905060208303925061186f565b6001836020036101000a03801982511681845116808217855250505050505090500191505060405180910390206000191614156119df576000600360008660001916600019168152602001908152602001600020600001846040518082805190602001908083835b60208310151561192157805182526020820191506020810190506020830392506118fc565b6001836020036101000a03801982511681845116808217855250505050505090500191505090815260200160405180910390208054600181600116156101000203166002900490501415156119de576040517f08c379a000000000000000000000000000000000000000000000000000000000815260040180806020018281038252601e8152602001807f4572726f723a20737461746963496420697320616c726561647920736574000081525060200191505060405180910390fd5b5b81600360008660001916600019168152602001908152602001600020600001846040518082805190602001908083835b602083101515611a345780518252602082019150602081019050602083039250611a0f565b6001836020036101000a03801982511681845116808217855250505050505090500191505090815260200160405180910390209080519060200190611a7a9291906151a0565b507fd8c9334b1a9c2f9da342a0a2b32629c1a229b6445dad78947f674b44444a75508484846040518084600019166000191681526020018060200180602001838103835285818151815260200191508051906020019080838360005b83811015611af1578082015181840152602081019050611ad6565b50505050905090810190601f168015611b1e5780820380516001836020036101000a031916815260200191505b50838103825284818151815260200191508051906020019080838360005b83811015611b57578082015181840152602081019050611b3c565b50505050905090810190601f168015611b845780820380516001836020036101000a031916815260200191505b509550505050505060405180910390a150505050565b6000600360008360001916600019168152602001908152602001600020600301805490509050919050565b6000606060006002600086600019166000191681526020019081526020016000209050600192505b8383111515611cfb57600084841614158015611c3257506000816001016000858152602001908152602001600020805460018160011615610100020316600290049050115b15611cec578060010160008481526020019081526020016000208054600181600116156101000203166002900480601f016020809104026020016040519081016040528092919081815260200182805460018160011615610100020316600290048015611ce05780601f10611cb557610100808354040283529160200191611ce0565b820191906000526020600020905b815481529060010190602001808311611cc357829003601f168201915b50505050509150611d00565b6001839060020a029250611bed565b600092505b509250929050565b6000600360008360001916600019168152602001908152602001600020600101805490509050919050565b600060026000836000191660001916815260200190815260200160002060000160009054906101000a900473ffffffffffffffffffffffffffffffffffffffff169050919050565b611d83615220565b6000843373ffffffffffffffffffffffffffffffffffffffff16600160009054906101000a900473ffffffffffffffffffffffffffffffffffffffff1673ffffffffffffffffffffffffffffffffffffffff166302571be3836040518263ffffffff167c0100000000000000000000000000000000000000000000000000000000028152600401808260001916600019168152602001915050602060405180830381600087803b158015611e3657600080fd5b505af1158015611e4a573d6000803e3d6000fd5b505050506040513d6020811015611e6057600080fd5b810190808051906020019092919050505073ffffffffffffffffffffffffffffffffffffffff16141515611efc576040517f08c379a000000000000000000000000000000000000000000000000000000000815260040180806020018281038252600d8152602001807f496e76616c6964206f776e65720000000000000000000000000000000000000081525060200191505060405180910390fd5b60a0604051908101604052808681526020014281526020018581526020016001151581526020016000151581525092506000600360008860001916600019168152602001908152602001600020600201805490501115611fd35760036000876000191660001916815260200190815260200160002060020160016003600089600019166000191681526020019081526020016000206002018054905003815481101515611fa557fe5b9060005260206000209060040201915060008260030160006101000a81548160ff0219169083151502179055505b60036000876000191660001916815260200190815260200160002060020183908060018154018082558091505090600182039060005260206000209060040201600090919290919091506000820151816000019080519060200190612039929190615254565b50602082015181600101556040820151816002015560608201518160030160006101000a81548160ff02191690831515021790555060808201518160030160016101000a81548160ff0219169083151502179055505050507feb10fb91320e28dafaf81133132f305998d3b5830fcf70e912cc2be2869f4fe086868660405180846000191660001916815260200180602001838152602001828103825284818151815260200191508051906020019080838360005b838110156121095780820151818401526020810190506120ee565b50505050905090810190601f1680156121365780820380516001836020036101000a031916815260200191505b5094505050505060405180910390a1505050505050565b60606003600083600019166000191681526020019081526020016000206000016040805190810160405280600881526020017f69734d656d6265720000000000000000000000000000000000000000000000008152506040518082805190602001908083835b6020831015156121d857805182526020820191506020810190506020830392506121b3565b6001836020036101000a03801982511681845116808217855250505050505090500191505090815260200160405180910390208054600181600116156101000203166002900480601f01602080910402602001604051908101604052809291908181526020018280546001816001161561010002031660029004801561229f5780601f106122745761010080835404028352916020019161229f565b820191906000526020600020905b81548152906001019060200180831161228257829003601f168201915b50505050509050919050565b60007fc5f16f0fcc639fa48a6947836d9850f504798523bf8c9a3a87d5876cf622bcf7600102905090565b606060008060008060006003600089600019166000191681526020019081526020016000206003018781548110151561230b57fe5b9060005260206000209060040201905080600001816001015482600201548360030160009054906101000a900460ff168460030160019054906101000a900460ff16848054600181600116156101000203166002900480601f0160208091040260200160405190810160405280929190818152602001828054600181600116156101000203166002900480156123e25780601f106123b7576101008083540402835291602001916123e2565b820191906000526020600020905b8154815290600101906020018083116123c557829003601f168201915b5050505050945095509550955095509550509295509295909350565b60606003600083600019166000191681526020019081526020016000206000016040805190810160405280600881526020017f783530304e616d650000000000000000000000000000000000000000000000008152506040518082805190602001908083835b6020831015156124895780518252602082019150602081019050602083039250612464565b6001836020036101000a03801982511681845116808217855250505050505090500191505090815260200160405180910390208054600181600116156101000203166002900480601f0160208091040260200160405190810160405280929190818152602001828054600181600116156101000203166002900480156125505780601f1061252557610100808354040283529160200191612550565b820191906000526020600020905b81548152906001019060200180831161253357829003601f168201915b50505050509050919050565b6060600360008460001916600019168152602001908152602001600020600001826040518082805190602001908083835b6020831015156125b2578051825260208201915060208101905060208303925061258d565b6001836020036101000a03801982511681845116808217855250505050505090500191505090815260200160405180910390208054600181600116156101000203166002900480601f0160208091040260200160405190810160405280929190818152602001828054600181600116156101000203166002900480156126795780601f1061264e57610100808354040283529160200191612679565b820191906000526020600020905b81548152906001019060200180831161265c57829003601f168201915b5050505050905092915050565b823373ffffffffffffffffffffffffffffffffffffffff16600160009054906101000a900473ffffffffffffffffffffffffffffffffffffffff1673ffffffffffffffffffffffffffffffffffffffff166302571be3836040518263ffffffff167c0100000000000000000000000000000000000000000000000000000000028152600401808260001916600019168152602001915050602060405180830381600087803b15801561273757600080fd5b505af115801561274b573d6000803e3d6000fd5b505050506040513d602081101561276157600080fd5b810190808051906020019092919050505073ffffffffffffffffffffffffffffffffffffffff161415156127fd576040517f08c379a000000000000000000000000000000000000000000000000000000000815260040180806020018281038252600d8152602001807f496e76616c6964206f776e65720000000000000000000000000000000000000081525060200191505060405180910390fd5b600083600185031614151561281157600080fd5b81600260008660001916600019168152602001908152602001600020600101600085815260200190815260200160002090805190602001906128549291906152d4565b50827fcf9d0b933e10a479e0a4d16f366f50ce94368ad60bfc4c9cc5133157243c1ad5858460405180836000191660001916815260200180602001828103825283818151815260200191508051906020019080838360005b838110156128c75780820151818401526020810190506128ac565b50505050905090810190601f1680156128f45780820380516001836020036101000a031916815260200191505b50935050505060405180910390a250505050565b6000600360008360001916600019168152602001908152602001600020600401549050919050565b606060008060008060006003600089600019166000191681526020019081526020016000206002018781548110151561296557fe5b9060005260206000209060040201905080600001816001015482600201548360030160009054906101000a900460ff168460030160019054906101000a900460ff16848054600181600116156101000203166002900480601f016020809104026020016040519081016040528092919081815260200182805460018160011615610100020316600290048015612a3c5780601f10612a1157610100808354040283529160200191612a3c565b820191906000526020600020905b815481529060010190602001808311612a1f57829003601f168201915b5050505050945095509550955095509550509295509295909350565b60606003600083600019166000191681526020019081526020016000206000016040805190810160405280600881526020017f70726f64756374730000000000000000000000000000000000000000000000008152506040518082805190602001908083835b602083101515612ae35780518252602082019150602081019050602083039250612abe565b6001836020036101000a03801982511681845116808217855250505050505090500191505090815260200160405180910390208054600181600116156101000203166002900480601f016020809104026020016040519081016040528092919081815260200182805460018160011615610100020316600290048015612baa5780601f10612b7f57610100808354040283529160200191612baa565b820191906000526020600020905b815481529060010190602001808311612b8d57829003601f168201915b50505050509050919050565b6000806000806000806000600360008a6000191660001916815260200190815260200160002060010188815481101515612bec57fe5b9060005260206000209060050201905080600001600001548160000160010154826002015483600301548460040160009054906101000a900460ff168560040160019054906101000a900460ff16965096509650965096509650509295509295509295565b60606003600083600019166000191681526020019081526020016000206000016040805190810160405280601681526020017f697346696e616e6369616c496e737469747574696f6e000000000000000000008152506040518082805190602001908083835b602083101515612cdc5780518252602082019150602081019050602083039250612cb7565b6001836020036101000a03801982511681845116808217855250505050505090500191505090815260200160405180910390208054600181600116156101000203166002900480601f016020809104026020016040519081016040528092919081815260200182805460018160011615610100020316600290048015612da35780601f10612d7857610100808354040283529160200191612da3565b820191906000526020600020905b815481529060010190602001808311612d8657829003601f168201915b50505050509050919050565b813373ffffffffffffffffffffffffffffffffffffffff16600160009054906101000a900473ffffffffffffffffffffffffffffffffffffffff1673ffffffffffffffffffffffffffffffffffffffff166302571be3836040518263ffffffff167c0100000000000000000000000000000000000000000000000000000000028152600401808260001916600019168152602001915050602060405180830381600087803b158015612e6057600080fd5b505af1158015612e74573d6000803e3d6000fd5b505050506040513d6020811015612e8a57600080fd5b810190808051906020019092919050505073ffffffffffffffffffffffffffffffffffffffff16141515612f26576040517f08c379a000000000000000000000000000000000000000000000000000000000815260040180806020018281038252600d8152602001807f496e76616c6964206f776e65720000000000000000000000000000000000000081525060200191505060405180910390fd5b600160036000856000191660001916815260200190815260200160002060010183815481101515612f5357fe5b906000526020600020906005020160040160016101000a81548160ff0219169083151502179055507fde9f1db4bbab2d8fd90c6e3cb3a6c8077ac1c78eef4e467866f1d9b5de7590a783836040518083600019166000191681526020018281526020019250505060405180910390a1505050565b6000809054906101000a900473ffffffffffffffffffffffffffffffffffffffff1681565b60606003600083600019166000191681526020019081526020016000206000016040805190810160405280600881526020017f6e6f64654b6579730000000000000000000000000000000000000000000000008152506040518082805190602001908083835b6020831015156130775780518252602082019150602081019050602083039250613052565b6001836020036101000a03801982511681845116808217855250505050505090500191505090815260200160405180910390208054600181600116156101000203166002900480601f01602080910402602001604051908101604052809291908181526020018280546001816001161561010002031660029004801561313e5780601f106131135761010080835404028352916020019161313e565b820191906000526020600020905b81548152906001019060200180831161312157829003601f168201915b50505050509050919050565b813373ffffffffffffffffffffffffffffffffffffffff16600160009054906101000a900473ffffffffffffffffffffffffffffffffffffffff1673ffffffffffffffffffffffffffffffffffffffff166302571be3836040518263ffffffff167c0100000000000000000000000000000000000000000000000000000000028152600401808260001916600019168152602001915050602060405180830381600087803b1580156131fb57600080fd5b505af115801561320f573d6000803e3d6000fd5b505050506040513d602081101561322557600080fd5b810190808051906020019092919050505073ffffffffffffffffffffffffffffffffffffffff161415156132c1576040517f08c379a000000000000000000000000000000000000000000000000000000000815260040180806020018281038252600d8152602001807f496e76616c6964206f776e65720000000000000000000000000000000000000081525060200191505060405180910390fd5b6001600360008560001916600019168152602001908152602001600020600201838154811015156132ee57fe5b906000526020600020906004020160030160016101000a81548160ff0219169083151502179055507f39c30a59295f1abc0009b20c3526d1bd3e2f1172df32ad8ecc1a12ed0ef5fcb883836040518083600019166000191681526020018281526020019250505060405180910390a1505050565b60606003600083600019166000191681526020019081526020016000206000016040805190810160405280600b81526020017f68617353574946544b65790000000000000000000000000000000000000000008152506040518082805190602001908083835b6020831015156133ed57805182526020820191506020810190506020830392506133c8565b6001836020036101000a03801982511681845116808217855250505050505090500191505090815260200160405180910390208054600181600116156101000203166002900480601f0160208091040260200160405190810160405280929190818152602001828054600181600116156101000203166002900480156134b45780601f10613489576101008083540402835291602001916134b4565b820191906000526020600020905b81548152906001019060200180831161349757829003601f168201915b50505050509050919050565b6000809054906101000a900473ffffffffffffffffffffffffffffffffffffffff1673ffffffffffffffffffffffffffffffffffffffff163373ffffffffffffffffffffffffffffffffffffffff16141515613584576040517f08c379a000000000000000000000000000000000000000000000000000000000815260040180806020018281038252600d8152602001807f696e76616c6964206f776e65720000000000000000000000000000000000000081525060200191505060405180910390fd5b600073ffffffffffffffffffffffffffffffffffffffff16600160009054906101000a900473ffffffffffffffffffffffffffffffffffffffff1673ffffffffffffffffffffffffffffffffffffffff1614151561364a576040517f08c379a000000000000000000000000000000000000000000000000000000000815260040180806020018281038252600f8152602001807f656e7320616c726561647920736574000000000000000000000000000000000081525060200191505060405180910390fd5b80600160006101000a81548173ffffffffffffffffffffffffffffffffffffffff021916908373ffffffffffffffffffffffffffffffffffffffff16021790555050565b813373ffffffffffffffffffffffffffffffffffffffff16600160009054906101000a900473ffffffffffffffffffffffffffffffffffffffff1673ffffffffffffffffffffffffffffffffffffffff166302571be3836040518263ffffffff167c0100000000000000000000000000000000000000000000000000000000028152600401808260001916600019168152602001915050602060405180830381600087803b15801561373f57600080fd5b505af1158015613753573d6000803e3d6000fd5b505050506040513d602081101561376957600080fd5b810190808051906020019092919050505073ffffffffffffffffffffffffffffffffffffffff16141515613805576040517f08c379a000000000000000000000000000000000000000000000000000000000815260040180806020018281038252600d8152602001807f496e76616c6964206f776e65720000000000000000000000000000000000000081525060200191505060405180910390fd5b60016003600085600019166000191681526020019081526020016000206003018381548110151561383257fe5b906000526020600020906004020160030160016101000a81548160ff0219169083151502179055507f7647f9bf99ca9b82cc317e438ed1c3f0321be350dc737359820425f1d845410383836040518083600019166000191681526020018281526020019250505060405180910390a1505050565b60606003600083600019166000191681526020019081526020016000206000016040805190810160405280600881526020017f76616b744d6e69640000000000000000000000000000000000000000000000008152506040518082805190602001908083835b602083101515613931578051825260208201915060208101905060208303925061390c565b6001836020036101000a03801982511681845116808217855250505050505090500191505090815260200160405180910390208054600181600116156101000203166002900480601f0160208091040260200160405190810160405280929190818152602001828054600181600116156101000203166002900480156139f85780601f106139cd576101008083540402835291602001916139f8565b820191906000526020600020905b8154815290600101906020018083116139db57829003601f168201915b50505050509050919050565b60606003600083600019166000191681526020019081526020016000206000016040805190810160405280600c81526020017f76616b74537461746963496400000000000000000000000000000000000000008152506040518082805190602001908083835b602083101515613a8f5780518252602082019150602081019050602083039250613a6a565b6001836020036101000a03801982511681845116808217855250505050505090500191505090815260200160405180910390208054600181600116156101000203166002900480601f016020809104026020016040519081016040528092919081815260200182805460018160011615610100020316600290048015613b565780601f10613b2b57610100808354040283529160200191613b56565b820191906000526020600020905b815481529060010190602001808311613b3957829003601f168201915b50505050509050919050565b613b6a615354565b613b72615374565b600080600080893373ffffffffffffffffffffffffffffffffffffffff16600160009054906101000a900473ffffffffffffffffffffffffffffffffffffffff1673ffffffffffffffffffffffffffffffffffffffff166302571be3836040518263ffffffff167c0100000000000000000000000000000000000000000000000000000000028152600401808260001916600019168152602001915050602060405180830381600087803b158015613c2957600080fd5b505af1158015613c3d573d6000803e3d6000fd5b505050506040513d6020811015613c5357600080fd5b810190808051906020019092919050505073ffffffffffffffffffffffffffffffffffffffff16141515613cef576040517f08c379a000000000000000000000000000000000000000000000000000000000815260040180806020018281038252600d8152602001807f496e76616c6964206f776e65720000000000000000000000000000000000000081525060200191505060405180910390fd5b60408051908101604052808b6000191681526020018a60001916815250965060a0604051908101604052808881526020014281526020018981526020016001151581526020016000151581525095506000600360008d60001916600019168152602001908152602001600020600101805490501115613de557600360008c600019166000191681526020019081526020016000206001016001600360008e600019166000191681526020019081526020016000206001018054905003815481101515613db757fe5b9060005260206000209060050201945060008560040160006101000a81548160ff0219169083151502179055505b600360008c60001916600019168152602001908152602001600020600101869080600181540180825580915050906001820390600052602060002090600502016000909192909190915060008201518160000160008201518160000190600019169055602082015181600101906000191690555050602082015181600201556040820151816003015560608201518160040160006101000a81548160ff02191690831515021790555060808201518160040160016101000a81548160ff02191690831515021790555050505089896040516020018083600019166000191681526020018260001916600019168152602001925050506040516020818303038152906040526040518082805190602001908083835b602083101515613f1e5780518252602082019150602081019050602083039250613ef9565b6001836020036101000a038019825116818451168082178552505050505050905001915050604051809103902060019004935073__Sha3AddressLib________________________6327b752b8856040518263ffffffff167c0100000000000000000000000000000000000000000000000000000000028152600401808273ffffffffffffffffffffffffffffffffffffffff1673ffffffffffffffffffffffffffffffffffffffff16815260200191505060206040518083038186803b158015613fe857600080fd5b505af4158015613ffc573d6000803e3d6000fd5b505050506040513d602081101561401257600080fd5b810190808051906020019092919050505092507f91d1777781884d03a6757a803996e38de2a42967fb37eeaca72729271025a9e2600102836040516020018083600019166000191681526020018260001916600019168152602001925050506040516020818303038152906040526040518082805190602001908083835b6020831015156140b55780518252602082019150602081019050602083039250614090565b6001836020036101000a03801982511681845116808217855250505050505090500191505060405180910390209150600160009054906101000a900473ffffffffffffffffffffffffffffffffffffffff1673ffffffffffffffffffffffffffffffffffffffff166306ab59237f91d1777781884d03a6757a803996e38de2a42967fb37eeaca72729271025a9e260010285306040518463ffffffff167c010000000000000000000000000000000000000000000000000000000002815260040180846000191660001916815260200183600019166000191681526020018273ffffffffffffffffffffffffffffffffffffffff1673ffffffffffffffffffffffffffffffffffffffff1681526020019350505050600060405180830381600087803b1580156141e457600080fd5b505af11580156141f8573d6000803e3d6000fd5b50505050600160009054906101000a900473ffffffffffffffffffffffffffffffffffffffff1673ffffffffffffffffffffffffffffffffffffffff16631896f70a83306040518363ffffffff167c01000000000000000000000000000000000000000000000000000000000281526004018083600019166000191681526020018273ffffffffffffffffffffffffffffffffffffffff1673ffffffffffffffffffffffffffffffffffffffff16815260200192505050600060405180830381600087803b1580156142c957600080fd5b505af11580156142dd573d6000803e3d6000fd5b505050506142eb828c61502c565b7fb3ed1c1c519f827a85d647d5edb488e511fde29cc80d7caaa3c3e2cd9a0a55f28b8b8b878c604051808660001916600019168152602001856000191660001916815260200184600019166000191681526020018373ffffffffffffffffffffffffffffffffffffffff1673ffffffffffffffffffffffffffffffffffffffff1681526020018281526020019550505050505060405180910390a15050505050505050505050565b6000600360008360001916600019168152602001908152602001600020600201805490509050919050565b60606003600083600019166000191681526020019081526020016000206000016040805190810160405280600881526020017f73746174696349640000000000000000000000000000000000000000000000008152506040518082805190602001908083835b6020831015156144495780518252602082019150602081019050602083039250614424565b6001836020036101000a03801982511681845116808217855250505050505090500191505090815260200160405180910390208054600181600116156101000203166002900480601f0160208091040260200160405190810160405280929190818152602001828054600181600116156101000203166002900480156145105780601f106144e557610100808354040283529160200191614510565b820191906000526020600020905b8154815290600101906020018083116144f357829003601f168201915b50505050509050919050565b60606003600083600019166000191681526020019081526020016000206000016040805190810160405280600d81526020017f69734465616374697661746564000000000000000000000000000000000000008152506040518082805190602001908083835b6020831015156145a75780518252602082019150602081019050602083039250614582565b6001836020036101000a03801982511681845116808217855250505050505090500191505090815260200160405180910390208054600181600116156101000203166002900480601f01602080910402602001604051908101604052809291908181526020018280546001816001161561010002031660029004801561466e5780601f106146435761010080835404028352916020019161466e565b820191906000526020600020905b81548152906001019060200180831161465157829003601f168201915b50505050509050919050565b813373ffffffffffffffffffffffffffffffffffffffff16600160009054906101000a900473ffffffffffffffffffffffffffffffffffffffff1673ffffffffffffffffffffffffffffffffffffffff166302571be3836040518263ffffffff167c0100000000000000000000000000000000000000000000000000000000028152600401808260001916600019168152602001915050602060405180830381600087803b15801561472b57600080fd5b505af115801561473f573d6000803e3d6000fd5b505050506040513d602081101561475557600080fd5b810190808051906020019092919050505073ffffffffffffffffffffffffffffffffffffffff161415156147f1576040517f08c379a000000000000000000000000000000000000000000000000000000000815260040180806020018281038252600d8152602001807f496e76616c6964206f776e65720000000000000000000000000000000000000081525060200191505060405180910390fd5b8160026000856000191660001916815260200190815260200160002060000160006101000a81548173ffffffffffffffffffffffffffffffffffffffff021916908373ffffffffffffffffffffffffffffffffffffffff1602179055507f52d7d861f09ab3d26239d492e8968629f95e9e318cf0b73bfddc441522a15fd283836040518083600019166000191681526020018273ffffffffffffffffffffffffffffffffffffffff1673ffffffffffffffffffffffffffffffffffffffff1681526020019250505060405180910390a1505050565b6148ce615220565b6000843373ffffffffffffffffffffffffffffffffffffffff16600160009054906101000a900473ffffffffffffffffffffffffffffffffffffffff1673ffffffffffffffffffffffffffffffffffffffff166302571be3836040518263ffffffff167c0100000000000000000000000000000000000000000000000000000000028152600401808260001916600019168152602001915050602060405180830381600087803b15801561498157600080fd5b505af1158015614995573d6000803e3d6000fd5b505050506040513d60208110156149ab57600080fd5b810190808051906020019092919050505073ffffffffffffffffffffffffffffffffffffffff16141515614a47576040517f08c379a000000000000000000000000000000000000000000000000000000000815260040180806020018281038252600d8152602001807f496e76616c6964206f776e65720000000000000000000000000000000000000081525060200191505060405180910390fd5b60a0604051908101604052808681526020014281526020018581526020016001151581526020016000151581525092506000600360008860001916600019168152602001908152602001600020600301805490501115614b1e5760036000876000191660001916815260200190815260200160002060030160016003600089600019166000191681526020019081526020016000206003018054905003815481101515614af057fe5b9060005260206000209060040201915060008260030160006101000a81548160ff0219169083151502179055505b60036000876000191660001916815260200190815260200160002060030183908060018154018082558091505090600182039060005260206000209060040201600090919290919091506000820151816000019080519060200190614b84929190615254565b50602082015181600101556040820151816002015560608201518160030160006101000a81548160ff02191690831515021790555060808201518160030160016101000a81548160ff0219169083151502179055505050507f2179fab05ea980c6e6c36a11b7f5520546f5756f871c48944803e33fbe16430986868660405180846000191660001916815260200180602001838152602001828103825284818151815260200191508051906020019080838360005b83811015614c54578082015181840152602081019050614c39565b50505050905090810190601f168015614c815780820380516001836020036101000a031916815260200191505b5094505050505060405180910390a1505050505050565b60606003600083600019166000191681526020019081526020016000206000016040805190810160405280600981526020017f6b6f6d676f4d6e696400000000000000000000000000000000000000000000008152506040518082805190602001908083835b602083101515614d235780518252602082019150602081019050602083039250614cfe565b6001836020036101000a03801982511681845116808217855250505050505090500191505090815260200160405180910390208054600181600116156101000203166002900480601f016020809104026020016040519081016040528092919081815260200182805460018160011615610100020316600290048015614dea5780601f10614dbf57610100808354040283529160200191614dea565b820191906000526020600020905b815481529060010190602001808311614dcd57829003601f168201915b50505050509050919050565b6000809054906101000a900473ffffffffffffffffffffffffffffffffffffffff1673ffffffffffffffffffffffffffffffffffffffff163373ffffffffffffffffffffffffffffffffffffffff16141515614eba576040517f08c379a000000000000000000000000000000000000000000000000000000000815260040180806020018281038252600d8152602001807f696e76616c6964206f776e65720000000000000000000000000000000000000081525060200191505060405180910390fd5b614ec3816150a6565b50565b8073ffffffffffffffffffffffffffffffffffffffff166352d1902d6040518163ffffffff167c0100000000000000000000000000000000000000000000000000000000028152600401602060405180830381600087803b158015614f2a57600080fd5b505af1158015614f3e573d6000803e3d6000fd5b505050506040513d6020811015614f5457600080fd5b8101908080519060200190929190505050600019167fc5f16f0fcc639fa48a6947836d9850f504798523bf8c9a3a87d5876cf622bcf760010260001916141515615006576040517f08c379a000000000000000000000000000000000000000000000000000000000815260040180806020018281038252600e8152602001807f4e6f7420636f6d70617469626c6500000000000000000000000000000000000081525060200191505060405180910390fd5b807fc5f16f0fcc639fa48a6947836d9850f504798523bf8c9a3a87d5876cf622bcf75550565b8060036000846000191660001916815260200190815260200160002060040181600019169055507f39a33dc9b7ce984ac4919033479b15fc28cb921af09458eb39955ddd064f7194828260405180836000191660001916815260200182600019166000191681526020019250505060405180910390a15050565b600073ffffffffffffffffffffffffffffffffffffffff168173ffffffffffffffffffffffffffffffffffffffff16141515156150e257600080fd5b8073ffffffffffffffffffffffffffffffffffffffff166000809054906101000a900473ffffffffffffffffffffffffffffffffffffffff1673ffffffffffffffffffffffffffffffffffffffff167f8be0079c531659141344cd1fd0a4f28419497f9722a3daafe3b4186f6b6457e060405160405180910390a3806000806101000a81548173ffffffffffffffffffffffffffffffffffffffff021916908373ffffffffffffffffffffffffffffffffffffffff16021790555050565b828054600181600116156101000203166002900490600052602060002090601f016020900481019282601f106151e157805160ff191683800117855561520f565b8280016001018555821561520f579182015b8281111561520e5782518255916020019190600101906151f3565b5b50905061521c91906153ae565b5090565b60a0604051908101604052806060815260200160008152602001600081526020016000151581526020016000151581525090565b828054600181600116156101000203166002900490600052602060002090601f016020900481019282601f1061529557805160ff19168380011785556152c3565b828001600101855582156152c3579182015b828111156152c25782518255916020019190600101906152a7565b5b5090506152d091906153ae565b5090565b828054600181600116156101000203166002900490600052602060002090601f016020900481019282601f1061531557805160ff1916838001178555615343565b82800160010185558215615343579182015b82811115615342578251825591602001919060010190615327565b5b50905061535091906153ae565b5090565b604080519081016040528060008019168152602001600080191681525090565b60c0604051908101604052806153886153d3565b815260200160008152602001600081526020016000151581526020016000151581525090565b6153d091905b808211156153cc5760008160009055506001016153b4565b5090565b90565b6040805190810160405280600080191681526020016000801916815250905600a165627a7a72305820c1a920fe9a4600aecf71fe9e7f9855390964e94dab02680d4ff1a37d44222b4e0029",
  "source": "pragma solidity ^0.4.24;\n\nimport \"./KomgoResolver.sol\";\nimport \"../lib/Sha3AddressLib.sol\";\n\n/**\n * @title KomgoMetaResolver contract\n * @author Fernando Garcia\n * @notice A resolver managed by Komgo with technical meta-data of a company.\n */\ncontract KomgoMetaResolver is KomgoResolver {\n\n    // namehash('addr.reverse')\n    bytes32 constant ADDR_REVERSE_NODE = 0x91d1777781884d03a6757a803996e38de2a42967fb37eeaca72729271025a9e2;\n    \n    event TextChanged(bytes32 _node, string _key, string _value);\n    event EthPubKeyAdded(bytes32 _node, bytes32 _xPublicKey, bytes32 _yPublicKey, address _address, uint _termDate);\n    event EthPubKeyRevoked(bytes32 _node, uint _index);\n    event KomgoMessagingPubKeyAdded(bytes32 _node, string _pubKey, uint _termDate);\n    event KomgoMessagingPubKeyRevoked(bytes32 _node, uint _index);\n    event VaktMessagingPubKeyAdded(bytes32 _node, string _pubKey, uint _termDate);\n    event VaktMessagingPubKeyRevoked(bytes32 _node, uint _index);\n    event ReverseNodeChanged(bytes32 _node, bytes32 _reversedNode);\n\n    string constant STATIC_ID = \"staticId\";\n    string constant KOMGO_MNID = \"komgoMnid\";\n    string constant VAKT_MNID = \"vaktMnid\";\n    string constant X500_NAME = \"x500Name\";\n    string constant NODE_KEYS = \"nodeKeys\";\n    string constant PRODUCTS = \"products\";\n    string constant VAKT_STATIC_ID = \"vaktStaticId\";\n    string constant IS_DEACTIVATED = \"isDeactivated\";\n    string constant HAS_SWIFTKEY = \"hasSWIFTKey\";\n    string constant IS_FINANCIAL_INSTITUTION = \"isFinancialInstitution\";\n    string constant IS_MEMBER = \"isMember\";\n    string constant LEGAL_ENTITY_NAME = \"legalEntityName\";\n\n    struct PublicKey {\n        bytes32 x;\n        bytes32 y;\n    }\n    \n    struct EthPubKey {\n        PublicKey publicKey;\n        uint effDate;\n        uint termDate;\n        bool current;\n        bool revoked;\n    }\n\n    struct MessagingPubKey {\n        string key;\n        uint effDate;\n        uint termDate;\n        bool current;\n        bool revoked;\n    }\n\n    struct MetaRecord {\n        mapping(string=>string) text;\n        EthPubKey[] ethPubKeys;\n        MessagingPubKey[] komgoMessagingPubKeys;\n        MessagingPubKey[] vaktMessagingPubKeys;\n        bytes32 reverseNode;\n    }\n\n    mapping (bytes32 => MetaRecord) metaRecords;\n    \n    /**\n     * Adds a new ethereum public key key associated with an ENS node.\n     * Increases the pointer of the current ethereum public key\n     * May only be called by the owner of that node in the ENS registry.\n     * @param _node The node to update.\n     * @param _xPublicKey lower 32 bytes of the public key to add.\n     * @param _yPublicKey higher 32 bytes of the public key to add.\n     * @param _termDate Termination date of the key to add.\n     */\n    function addEthereumPublicKey(bytes32 _node, bytes32 _xPublicKey, bytes32 _yPublicKey, uint _termDate) public only_owner(_node) {\n        PublicKey memory publicKey = PublicKey(_xPublicKey, _yPublicKey);\n        // solium-disable-next-line security/no-block-members\n        EthPubKey memory key = EthPubKey(publicKey, now, _termDate, true, false);\n        if (metaRecords[_node].ethPubKeys.length > 0) {\n            EthPubKey storage currentKey = metaRecords[_node].ethPubKeys[metaRecords[_node].ethPubKeys.length-1];\n            currentKey.current = false;\n        }\n        metaRecords[_node].ethPubKeys.push(key);\n        address addressFromPubKey = address(keccak256(abi.encodePacked(_xPublicKey, _yPublicKey)));\n        bytes32 label = Sha3AddressLib.sha3HexAddress(addressFromPubKey);\n        bytes32 reverseNode = keccak256(abi.encodePacked(ADDR_REVERSE_NODE, label));\n        ens.setSubnodeOwner(ADDR_REVERSE_NODE, label, this);\n        ens.setResolver(reverseNode, this);\n        setReverseNode(reverseNode, _node);\n        emit EthPubKeyAdded(_node, _xPublicKey, _yPublicKey, addressFromPubKey, _termDate);\n    }\n\n    /**\n     * Adds a new Komgo messaging public key key associated with an ENS node.\n     * Increases the pointer of the current messaging public key\n     * May only be called by the owner of that node in the ENS registry.\n     * @param _node The node to update.\n     * @param _jwk JWK public key.\n     * @param _termDate Termination date of the key to add.\n     */\n    function addKomgoMessagingPublicKey(bytes32 _node, string _jwk, uint _termDate) public only_owner(_node) {\n        // solium-disable-next-line security/no-block-members\n        MessagingPubKey memory key = MessagingPubKey(_jwk, now, _termDate, true, false);\n        if (metaRecords[_node].komgoMessagingPubKeys.length > 0) {\n            MessagingPubKey storage currentKey = metaRecords[_node].komgoMessagingPubKeys[metaRecords[_node].komgoMessagingPubKeys.length-1];\n            currentKey.current = false;\n        }\n        metaRecords[_node].komgoMessagingPubKeys.push(key);\n        emit KomgoMessagingPubKeyAdded(_node, _jwk, _termDate);\n    }\n\n    /**\n     * Adds a new VAKT messaging public key key associated with an ENS node.\n     * Increases the pointer of the current messaging public key\n     * May only be called by the owner of that node in the ENS registry.\n     * @param _node The node to update.\n     * @param _jwk JWK public key.\n     * @param _termDate Termination date of the key to add.\n     */\n    function addVaktMessagingPublicKey(bytes32 _node, string _jwk, uint _termDate) public only_owner(_node) {\n        // solium-disable-next-line security/no-block-members\n        MessagingPubKey memory key = MessagingPubKey(_jwk, now, _termDate, true, false);\n        if (metaRecords[_node].vaktMessagingPubKeys.length > 0) {\n            MessagingPubKey storage currentKey = metaRecords[_node].vaktMessagingPubKeys[metaRecords[_node].vaktMessagingPubKeys.length-1];\n            currentKey.current = false;\n        }\n        metaRecords[_node].vaktMessagingPubKeys.push(key);\n        emit VaktMessagingPubKeyAdded(_node, _jwk, _termDate);\n    }\n\n    /**\n     * Revokes an ethereum public key (past present or future)\n     * @param _node The node to update.\n     * @param _index The index of the ethereum public key to revoke.\n     */\n    function revokeEthereumPublicKey(bytes32 _node, uint _index) public only_owner(_node) {\n        metaRecords[_node].ethPubKeys[_index].revoked = true;\n        emit EthPubKeyRevoked(_node, _index);\n    }\n\n    /**\n     * Revokes a Komgo messaging public key (past present or future)\n     * @param _node The node to update.\n     * @param _index The index of the messaging public key to revoke.\n     */\n    function revokeKomgoMessagingPublicKey(bytes32 _node, uint _index) public only_owner(_node) {\n        metaRecords[_node].komgoMessagingPubKeys[_index].revoked = true;\n        emit KomgoMessagingPubKeyRevoked(_node, _index);\n    }\n\n    /**\n     * Revokes a VAKT messaging public key (past present or future)\n     * @param _node The node to update.\n     * @param _index The index of the messaging public key to revoke.\n     */\n    function revokeVaktMessagingPublicKey(bytes32 _node, uint _index) public only_owner(_node) {\n        metaRecords[_node].vaktMessagingPubKeys[_index].revoked = true;\n        emit VaktMessagingPubKeyRevoked(_node, _index);\n    }\n\n    /**\n     * Adds a reverse node associated to a node that would represent the reverse entry for an address\n     * @param _node The node to update, that is a node for reverse addresses\n     * @param _reverseNode The company node where the node belongs to\n     */\n    function setReverseNode(bytes32 _node, bytes32 _reverseNode) private {\n        metaRecords[_node].reverseNode = _reverseNode;\n        emit ReverseNodeChanged(_node, _reverseNode);\n    }\n\n    /**\n     * Sets the text data associated with an ENS node and key.\n     * May only be called by the owner of that node in the ENS registry.\n     * @param node The node to update.\n     * @param key The key to set.\n     * @param value The text data value to set.\n     */\n    function setText(bytes32 node, string key, string value) public only_owner(node) {\n        if(keccak256(key) == keccak256(STATIC_ID)){\n            require(bytes(metaRecords[node].text[key]).length == 0, \"Error: staticId is already set\");\n        }\n        metaRecords[node].text[key] = value;\n        emit TextChanged(node, key, value);\n    }\n\n    /**\n     * Returns the text data associated with an ENS node and key.\n     * @param node The ENS node to query.\n     * @param key The text data key to query.\n     * @return The associated text data.\n     */\n    function text(bytes32 node, string key) public view returns (string) {\n        return metaRecords[node].text[key];\n    }\n\n    /**\n     * Returns the current ethereum public key associated with an ENS node.\n     * @param _node The ENS node to query.\n     * @param _index The index of the signing key.\n     * @return The signing key. Lower 32 bytes of public key, higher 32 bytes of public key, effDate, termDate, revoked\n     */\n    function currentEthereumPublicKey(bytes32 _node, uint _index) public view returns (bytes32, bytes32, uint, uint, bool, bool) {\n        EthPubKey storage key = metaRecords[_node].ethPubKeys[_index];\n        return (key.publicKey.x, key.publicKey.y, key.effDate, key.termDate, key.current, key.revoked);\n    }\n\n    /**\n     * Returns the size of the ethereum public keys associated with an ENS node.\n     * @param _node The ENS node to query.\n     * @return The length of the ethereum public keys array.\n     */\n    function ethereumPublicKeysLength(bytes32 _node) public view returns (uint) {\n        return metaRecords[_node].ethPubKeys.length;\n    }\n\n    /**\n     * Returns the current Komgo messaging public key associated with an ENS node.\n     * @param _node The ENS node to query.\n     * @param _index The index of the messaging key.\n     * @return The messaging JWK key, effDate, termDate, revoked\n     */\n    function currentKomgoMessagingPublicKey(bytes32 _node, uint _index) public view returns (string, uint, uint, bool, bool) {\n        MessagingPubKey storage key = metaRecords[_node].komgoMessagingPubKeys[_index];\n        return (key.key, key.effDate, key.termDate, key.current, key.revoked);\n    }\n\n    /**\n     * Returns the size of the Komgo messaging keys associated with an ENS node.\n     * @param _node The ENS node to query.\n     * @return The length of the signing keys array.\n     */\n    function komgoMessagingPublicKeysLength(bytes32 _node) public view returns (uint) {\n        return metaRecords[_node].komgoMessagingPubKeys.length;\n    }\n\n    /**\n     * Returns the current VAKT messaging public key associated with an ENS node.\n     * @param _node The ENS node to query.\n     * @param _index The index of the messaging key.\n     * @return The messaging JWK key, effDate, termDate, revoked\n     */\n    function currentVaktMessagingPublicKey(bytes32 _node, uint _index) public view returns (string, uint, uint, bool, bool) {\n        MessagingPubKey storage key = metaRecords[_node].vaktMessagingPubKeys[_index];\n        return (key.key, key.effDate, key.termDate, key.current, key.revoked);\n    }\n\n    /**\n     * Returns the size of the VAKT messaging keys associated with an ENS node.\n     * @param _node The ENS node to query.\n     * @return The length of the signing keys array.\n     */\n    function vaktMessagingPublicKeysLength(bytes32 _node) public view returns (uint) {\n        return metaRecords[_node].vaktMessagingPubKeys.length;\n    }\n\n    /**\n     * Returns the reverse node associated with an ENS node for reverse lookups of addresses\n     * @param _node The ENS node to query\n     * @return The company node associated to the address _node\n    */\n    function reverseNode(bytes32 _node) public view returns(bytes32) {\n        return metaRecords[_node].reverseNode;\n    }\n    \n    /**\n     * Returns the staticId associated with an ENS node.\n     * @param _node The ENS node to query.\n     * @return The associated staticId\n     */\n    function staticId(bytes32 _node) public view returns (string) {\n        return metaRecords[_node].text[STATIC_ID];\n    }\n\n    /**\n     * Returns the Komgo MNID queue associated with an ENS node.\n     * @param _node The ENS node to query.\n     * @return The associated Komgo MNID.\n     */\n    function komgoMnid(bytes32 _node) public view returns (string) {\n        return metaRecords[_node].text[KOMGO_MNID];\n    }\n\n    /**\n     * Returns the VAKT MNID queue associated with an ENS node.\n     * @param _node The ENS node to query.\n     * @return The associated VAKT MNID.\n     */\n    function vaktMnid(bytes32 _node) public view returns (string) {\n        return metaRecords[_node].text[VAKT_MNID];\n    }\n\n    /**\n     * Returns the X500 Name associated with an ENS node.\n     * @param _node The ENS node to query.\n     * @return a string formatted as a JSON array of the associated nodes public keys.\n     */\n    function x500Name(bytes32 _node) public view returns (string) {\n        return metaRecords[_node].text[X500_NAME];\n    }\n\n    /**\n     * Returns the node keys associated with an ENS node.\n     * @param _node The ENS node to query.\n     * @return a string formatted as a JSON array of the associated nodes public keys.\n     */\n    function nodeKeys(bytes32 _node) public view returns (string) {\n        return metaRecords[_node].text[NODE_KEYS];\n    }\n\n    /**\n     * Returns the JSON string with all products\n     * @param _node The ENS node to query\n     */\n    function products(bytes32 _node) public view returns(string) {\n        return metaRecords[_node].text[PRODUCTS];\n    }\n\n    /**\n     * Returns the VAKT static ID\n     * @param _node The ENS node to query\n     */\n    function vaktStaticId(bytes32 _node) public view returns(string) {\n        return metaRecords[_node].text[VAKT_STATIC_ID];\n    }\n\n    /**\n     * Returns the isDeactivated value\n     * @param _node The ENS node to query\n     */\n    function isDeactivated(bytes32 _node) public view returns(string) {\n        return metaRecords[_node].text[IS_DEACTIVATED];\n    }\n\n    /**\n     * Checks if the company has SWIFT key\n     * @param _node The ENS node to query\n     * @return true if the company has SWIFT key\n    */\n    function hasSWIFTKey(bytes32 _node) public view returns(string) {\n        return metaRecords[_node].text[HAS_SWIFTKEY];\n    }\n\n    /**\n     * Checks if the company is a financial institution\n     * @param _node The ENS node to query\n     */\n    function isFinancialInstitution(bytes32 _node) public view returns(string) {\n        return metaRecords[_node].text[IS_FINANCIAL_INSTITUTION];\n    }\n\n    /**\n     * Checks if the company is a member\n     * @param _node The ENS node to query\n     */\n    function isMember(bytes32 _node) public view returns(string) {\n        return metaRecords[_node].text[IS_MEMBER];\n    }\n\n    /**\n     * Returns the legal entity name of the company\n     * @param _node The ENS node to query\n     */\n    function legalEntityName(bytes32 _node) public view returns(string) {\n        return metaRecords[_node].text[LEGAL_ENTITY_NAME];\n    }\n}",
  "sourcePath": "node_modules/@komgo/smart-contracts/contracts/companyregistry/KomgoMetaResolver.sol",
  "compiler": {
    "name": "solc",
    "version": "0.4.25+commit.59dbf8f1.Emscripten.clang"
  },
  "schemaVersion": "2.0.1",
  "updatedAt": "2019-06-07T12:19:31.606Z"
}